:020000040800F2
:10000000E0B000200D0300081F2800085D24000850
:100010001D280008A9060008C930000800000000DB
:100020000000000000000000000000004D02000879
:100030007D09000800000000A9020008C92C000882
:1000400027030008270300082703000827030008E8
:1000500027030008270300082703000827030008D8
:1000600027030008270300082703000827030008C8
:1000700027030008270300082703000827030008B8
:1000800027030008270300082703000827030008A8
:10009000E9060008270300082703000827030008D3
:1000A0002703000827030008270300082703000888
:1000B0002703000827030008270300082703000878
:1000C0002703000827030008270300082703000868
:1000D00027030008993000082703000827030008B9
:1000E0002703000827030008270300082703000848
:1000F0002703000827030008270300082703000838
:100100002703000827030008270300082703000827
:100110002703000827030008992D0008270300087B
:1001200027030008270300087908000827030008B0
:1001300027030008270300082703000827030008F7
:1001400049070008270300082703000827030008C1
:1001500027030008270300082703000827030008D7
:1001600027030008270300082703000827030008C7
:1001700027030008270300082703000800000000E9
:1001800027030008270300082703000827030008A7
:100190002703000827030008270300082703000897
:1001A00000000000000000002703000800F002F833
:1001B00000F03CF80AA090E8000C82448344AAF1C5
:1001C0000107DA4501D100F031F8AFF2090EBAE8C3
:1001D0000F0013F0010F18BFFB1A43F0010318477B
:1001E0005464000074640000103A24BF78C878C1D9
:1001F000FAD8520724BF30C830C144BF04680C602D
:10020000704700000023002400250026103A28BF74
:1002100078C1FBD8520728BF30C148BF0B60704778
:100220001FB506F0CCF81FBD10B510BD00F0E4F905
:100230001146FFF7F5FF03F03DFD00F002FA03B4AD
:10024000FFF7F2FF03BC00F005FA00002C4B196821
:100250000868B0E8F04F80F30988BFF36F8F4FF064
:10026000000080F311887047000000000848006813
:10027000006880F308884FF0000080F3148862B6AD
:1002800061B6BFF34F8FBFF36F8F00DF00BF00BFBA
:1002900008ED00E0DFF80C00016841F47001016036
:1002A000704700BF88ED00E0EFF30980BFF36F8F68
:1002B000134B1A681EF0100F08BF20ED108A20E9BA
:1002C000F04F106009B44FF0500080F31188BFF375
:1002D0004F8FBFF36F8F04F027FE4FF0000080F3C5
:1002E000118809BC19680868B0E8F04F1EF0100FBB
:1002F00008BFB0EC108A80F30988BFF36F8F704796
:1003000034000020EFF30580704700000948804763
:1003100009480047FEE7FEE7FEE7FEE7FEE7FEE7E7
:10032000FEE7FEE7FEE7FEE704480549054A064BFF
:1003300070470000892D0008AD010008E070002022
:10034000E0B00020E0900020E090002053EA020C92
:1003500000F069802DE9F04B4FF00006002B1FBF25
:10036000B3FA83F503FA05F424FA05F65E4012BFEA
:100370001643B2FA82F502FA05F4C5F120051EBF54
:1003800022FA05FC44EA0C04203556EA044C4FEAF4
:10039000144418BF641C4FF000084FF0000990424D
:1003A00071EB030C39D3002919BFB1FA81F701FAB7
:1003B00007F6B0FA80F700FA07F6C7F120071EBF6C
:1003C00020FA07FC46EA0C062037B6FBF4FCA7EB44
:1003D0000507103F07F01F0BCBF120060CFA0BFBB3
:1003E0002CFA06F644BFB3460026202FA4BF5E4673
:1003F0004FF0000B5BEA060C08BF4FF0010B19EB46
:100400000B09ABFB027C48EB0608C01B06FB02CCC9
:100410000BFB03CC71EB0C01C1E70B4602464146D6
:100420004846BDE8F08B13B54FF000004FF00001D7
:10043000AFF30080BDE81C407047032A40F23080D3
:1004400010F0030C00F0158011F8013BBCF1020F15
:10045000624498BF11F801CB00F8013B38BF11F896
:10046000013BA2F1040298BF00F801CB38BF00F8AD
:10047000013B11F0030300F02580083AC0F008802A
:1004800051F8043B083A51F804CBA0E80810F5E70E
:10049000121D5CBF51F8043B40F8043BAFF30080F1
:1004A000D20724BF11F8013B11F801CB48BF11F866
:1004B000012B24BF00F8013B00F801CB48BF00F836
:1004C000012B704710B5203AC0F00B80B1E81850EE
:1004D000203AA0E81850B1E81850A0E81850BFF42E
:1004E000F5AF5FEA027C24BFB1E81850A0E81850CD
:1004F00044BF18C918C0BDE810405FEA827C24BF21
:1005000051F8043B40F8043B08BF7047D20728BFAE
:1005100031F8023B48BF11F8012B28BF20F8023BFD
:1005200048BF00F8012B704702F0FF0343EA0322A3
:1005300042EA024200F002B84FF000020429C0F083
:10054000128010F0030C00F01B80CCF1040CBCF105
:10055000020F18BF00F8012BA8BF20F8022BA1EB57
:100560000C0100F00DB85FEAC17C24BF00F8012B3C
:1005700000F8012B48BF00F8012B70474FF0000234
:1005800000B5134694469646203922BFA0E80C5089
:10059000A0E80C50B1F12001BFF4F7AF090728BF64
:1005A000A0E80C5048BF0CC05DF804EB890028BFE0
:1005B00040F8042B08BF704748BF20F8022B11F009
:1005C000804F18BF00F8012B704770477047704785
:1005D00010B500F009F8006810BD10B5044600F031
:1005E00003F8046010BD0000004870477C700020D4
:1005F000004870477C7000207546FFF7F9FFAE4653
:1006000005006946534620F00700854618B020B51E
:10061000FFF78AFEBDE820404FF000064FF00007CC
:100620004FF000084FF0000B21F00701AC46ACE89A
:10063000C009ACE8C009ACE8C009ACE8C0098D4607
:10064000704710B50446AFF300802046BDE8104067
:10065000FFF7F5BD01491820ABBEFEE726000200FA
:100660007047000010B504F05DFA00F073F800F078
:100670008FF80B480068416941F002014161094867
:100680000068416941F00201416103F0E3FA03F0BF
:100690002DFB04F067FABDE81040002004F060BBB9
:1006A00090070020B8070020FEE700008EB00D4E36
:1006B0004FF0FF3840F2052709AD424605A93068E2
:1006C00004F082FE059CBC42F7D1142229466846FC
:1006D000FFF7F8FE0DF1180C20469CE80E0001F023
:1006E000F3FEEAE708000020014800F0C6BA000067
:1006F000900700208EB0134E4FF0FF3840F20627CF
:1007000009AD424605A9306804F05EFE059C4FF035
:100710001402BC422946684609D1FFF7D3FE0DF109
:10072000180C20469CE80E0001F09AFEE9E7FFF75E
:10073000C9FE0DF1180C20469CE80E0001F0A6FE43
:10074000DFE700000C000020014800F096BA00002E
:10075000B807002000B58BB000200121CDE90601CB
:100760000590009001900290039004900E20CDE936
:1007700008106946054800F085F9044800F0BCFC03
:100780000221024800F0FDF80BB000BD90070020E8
:1007900000B58BB00E20059000200121CDE90601A7
:1007A00003900090019002900891049069460648D9
:1007B00000F068F9044800F09FFC0221024800F0B4
:1007C000E0F80BB000BD0000B807002008B504F049
:1007D00041FF0D4CCDF80000002294ED030AB4F95E
:1007E0002030BDEEC00A10EE100A94ED010A01B2ED
:1007F000BDEEC00A10EE100A00B200F095F802211A
:10080000684604F067FAE7E7C000002004480021CA
:10081000027B12B141730173704701224273FAE700
:10082000DC6F0020401AB0F5805F03DDA0F5F850C2
:10083000FF38704710F5805FFBDA41F6FF7108441E
:100840007047000008B504F005FF094D0126002798
:10085000084C0090FFF7DAFF687B012805D0E777A6
:10086000C821684604F036FAF4E7E677F8E70000B6
:10087000DC6F0020C0000020014800F0CBBC00006D
:100880006808002001681823CAB2103AB2FBF3F2DC
:10089000054B6FF30901032A9B5CC36500D9091D51
:1008A00081650846704700009C64000810B5014649
:1008B00000208B698A6A4FF0C07453B1B3F5005FB2
:1008C00015D072B1012A0CD0022A0AD0032A09D10C
:1008D00004E01AB1012A06D0022A03D1C96AC9016B
:1008E00000D5012010BDC96AA142FAD010BD002A6E
:1008F000F7D0012AF2D0022AF3D0032AF3D010BD98
:1009000030B50468256825F4802525600468636097
:100910008368402B036803D099600068C26030BDD3
:100920009A600068C16030BD10B588B000240094A2
:100930000194049405940824069440F275140294DA
:10094000040A8DF800408DF80100080A8DF80200B5
:10095000100A8DF804008DF80520180A8DF806009D
:100960008DF803108DF8073000236A4602A902486B
:1009700000F019F808B010BD90070020704772B65B
:10098000FEE790F82020012A07D0022A05D0416A0C
:1009900041F48021416201207047006842690A43A6
:1009A000426100207047F0B590F820500468A468B8
:1009B000012D05D0022D03D0416A41F480215DE074
:1009C00014F0406F01D1E50055D5C4F30164022C49
:1009D00003D9416A41F4000150E00125A5401D60A2
:1009E0008D684FF4C0739DB1CE6835434E6845EABB
:1009F000C605066803EB0417F5514FF4C275076886
:100A000005EB04150E697E51097D012905D009E029
:100A10000E88CD6845EA4655EBE701684E5946F425
:100A200080764E511179D579567941EA05619579EB
:100A30002D0445EA062529434FF4C676056806EBE2
:100A40000416A9511178D57841EA05619578527854
:100A50002D0445EA022211434FF4C475026805EBE8
:100A600004155151006803EB0411425842F0010291
:100A700042500020F0BD416A41F400114162012062
:100A8000F0BD000010B590F82020012A07D0022AFE
:100A900005D0416A41F480214162012010BD3B48EC
:100AA000D0F8002242F00102C0F80022D0F8002263
:100AB00022F47C52C0F80022D0F800224B6A42EAAD
:100AC0000322C0F800220A7D02F01F0301229A408F
:100AD000D0F81C329343C0F81C32CB69B3B9D0F8BC
:100AE0000C329343C0F80C328C894B6864F31F437B
:100AF0004C6900EBC404C4F840320C890B6864F301
:100B00001F434C6900EBC404C4F84432CB69012B89
:100B100016D1D0F80C321343C0F80C320C884B6855
:100B200064F31F434C6900EBC404C4F840320C89E1
:100B3000CB6864F31F434C6900EBC404C4F844322F
:100B40008B69002BD0F804320ED01343C0F8043266
:100B50000B69002BD0F8143208D01343C0F81432BC
:100B6000096A012904D008E09343EFE79343F5E7CE
:100B7000D0F81C121143C0F81C12D0F8001221F05A
:100B80000101C0F80012002010BD00000064004008
:100B9000704730B590F82040012C05D0022C03D0CE
:100BA000416A41F480215DE00468002955D0246940
:100BB000A40754D04FF4D874056804EB01142D59E0
:100BC00015F00405956005682D594ED0ED08556067
:100BD00005682C5904F00204D4604FF4DA740568F7
:100BE00004EB01142D5905F00F05156105682D5909
:100BF000C5F30725956105682C59240C54614FF401
:100C0000DC72046802EB0112A4581C700468A4583A
:100C1000240A5C700468A458240C9C700468A258D0
:100C2000120EDA704FF4DE72046802EB0112A4585F
:100C30001C710468A458240A5C710468A458240C2C
:100C40009C710468A258120EDA71006881B10169C2
:100C500041F020010161002030BDE468A8E7416A4D
:100C600041F400114162012030BD6D0D1560AFE708
:100C7000C16841F02001C160EDE72DE9F05F054654
:100C8000006800244669D0F804908768D0F80CB05A
:100C9000D0F810A0D0F81880F10748D0F90714D088
:100CA00001218160B80703D5284600F052FA0CE014
:100CB000780702D54FF4006407E0380702D54FF4F7
:100CC000805402E0284600F043FAF80516D529685A
:100CD0004FF480708860B80503D5284600F03BFAD1
:100CE0000CE0780502D544F4005407E0380502D53D
:100CF00044F4804402E0284600F02CFAF80316D5AC
:100D000029684FF480308860B80303D5284600F086
:100D100024FA0CE0780302D544F4004407E03803D9
:100D200002D544F4803402E0284600F015FA30077A
:100D300007D55FEACB6004D52968102044F400741D
:100D4000C86070074FF0080707D55FEA0B7004D53D
:100D50002868C760284600F099F9B00706D52868CA
:100D6000C068800702D0284600F092F9700607D5C7
:100D70005FEACA6004D52968102044F480640861E1
:100D8000B00607D55FEA0A7004D5286807612846CF
:100D900000F0AEF9F00606D528680069800702D099
:100DA000284600F0A6F9B00308D55FEAC96005D56A
:100DB000296810204860284600F09CF9F00307D508
:100DC0005FEA097004D528684760284600F0C6F934
:100DD000300446D55FEA497040D5F00504D55FEA96
:100DE000C87001D044F00104B00504D55FEA8870F2
:100DF00001D544F00204700504D55FEA487001D5BE
:100E000044F00404300529D518F0700F26D008F0FE
:100E10007000402815D006DC102809D020280AD000
:100E2000302816D10AE050280ED0602811D10EE0EB
:100E300044F008040DE044F010040AE044F02004FB
:100E400007E044F0400404E044F0800401E044F48E
:100E500080742868816921F070018161296804200B
:100E60004860002C05D0686A204368622846FFF776
:100E70008FFEBDE8F09F70B5040003D094F8200009
:100E800010B104E0012070BD204600F081F8206818
:100E9000016841F00101016000F034FC05460526BF
:100EA00004E000F02FFC401B0A2811D8206840689D
:100EB000C007F6D02068016821F00201016000F04F
:100EC00021FC05460BE000F01DFC401B0A2806D95A
:100ED000606A40F40030606284F82060D2E72068E5
:100EE00040688007EFD4207E0128206801683DD04B
:100EF00021F080010160607E01282068016838D0FF
:100F000021F040010160A07E01282068016833D0F3
:100F100021F020010160E07E0128206801682ED0C8
:100F200041F010010160207F01282068016829D06C
:100F300021F008010160607F01282068016824D049
:100F400021F004010160D4E902010843D4E904124C
:100F5000114308436168491E08432168C8610020A5
:100F60006062012084F82000002070BD41F0800103
:100F7000C0E741F04001C5E741F02001CAE721F098
:100F80001001CFE741F00801D4E741F00401D9E7AF
:100F9000F0B587B0044614216846FFF7EFFA364BE8
:100FA0003648DFF8D0E01968D4F800C0334A03258A
:100FB0000226092710300024491CF44522D119606B
:100FC000012907D1016841F000710160006800F05B
:100FD00000700590106840F0080010601068CDE9BE
:100FE000005600F00800CDE9047069462448CDE9B8
:100FF000024500F06DFA00220521142000F020FCCB
:10100000142033E0DFF87CE0F44531D1D0F800C0A3
:101010004CF0806CC0F800C0D0F800C001290CF082
:10102000806CCDF814C0196007D1016841F00071DF
:101030000160006800F000700590106840F0020048
:101040001060106802AB00F0020005904FF44050B1
:10105000CDE9000683E8B00069460B4800F038FA95
:1010600000220521402000F0EBFB402000F0DAFBDD
:1010700007B0F0BD0064004020000020303802407E
:10108000000C02400068004000040240704700006D
:1010900010B5124A016891420BD1114B0021A3F106
:1010A0001C02FFF776FD00230D491A461C390D4836
:1010B0000EE00D4A914210D1094B00212433A3F1D7
:1010C0001C02FFF766FD0023054908481A4608314F
:1010D0000068BDE8104004F017B910BD006400407E
:1010E0006C6B002008000020006800400C0000200D
:1010F000704770477047000070B5044690F82000B4
:10110000012804D0606A40F40020606218E00220E8
:1011100084F820002068016821F00101016000F0DE
:10112000F1FA05460EE000BF00F0ECFA401B0A2879
:1011300008D9606A40F400306062052084F820001D
:10114000012070BD20684068C007EDD1606270BDAD
:1011500070477047704770477047704770472DE978
:10116000F0410446876D00F0CDFA064694F835004C
:101170000025022806D08020606584F834500120C4
:10118000BDE8F0812068016821F016010160206847
:10119000416921F080014161206C08B9A06C20B147
:1011A0002068016821F0080101602068016821F0D1
:1011B000010101600CE000F0A5FA801B052807D9A9
:1011C00020206065032084F8350084F83450D7E788
:1011D00020680068C007EED194F85C103F2088407A
:1011E000B860012084F8350084F834500020C7E747
:1011F00090F83510022903D0802141650120704705
:10120000052180F835100068016821F001010160B6
:10121000002070472DE9F84304464FF00009CDF84F
:10122000009063484FF41651A56D0068B0FBF1F7CC
:101230002E6894F85C10082000FA01F131420FD0BA
:1012400021680A6852070BD50A6822F004020A6076
:1012500094F85C108840A860606D40F00100606503
:1012600094F85C104FF0010808FA01F0304208D001
:1012700021684969090604D5A860606D40F0020044
:10128000606594F85C1004208840304208D02168E2
:101290000968890704D5A860606D40F004006065A6
:1012A00094F85C1010208840304218D021680968FA
:1012B000090714D5A86020680168490304D50068AF
:1012C000000308D5A16C07E00168C90503D40168D3
:1012D00021F008010160216C09B12046884794F88B
:1012E0005C1020208840304231D021680968C9064E
:1012F0002DD5A86094F8350005282068016806D02F
:10130000490347D5006800031DD4616C1CE021F03F
:10131000160101602068416921F080014161206C63
:1013200008B9A06C20B12068016821F008010160B3
:1013300094F85C103F208840A86084F8358084F8D9
:101340003490216D1FE0E16B09B120468847606D44
:1013500000282BD0606DC00714D0052084F835001C
:101360002068016821F0010101600098401C009094
:10137000B84203D820680068C007F6D184F83580E9
:1013800084F83490E16C002910D001B02046BDE80B
:10139000F04308470168C905D5D4016821F0100160
:1013A000016084F8358084F83490CCE7BDE8F88398
:1013B000300000202DE9F041044600F0A3F9064674
:1013C0005CB1022084F83500002584F83450206890
:1013D000016821F0010101600DE00120BDE8F0810C
:1013E00000F090F9801B052805D9202060650320B6
:1013F00084F83500F2E720680068C007F0D1226861
:10140000116820480140D4E901031843D4E90336A8
:101410003343184363691843A3691843E3691843C6
:10142000236A18430843616A042903D1D4E90B13E2
:1014300019430843106020684069666A20F007017C
:1014400030460E43012704280CD1A06A0643E06A07
:1014500040B12046FFF72AFA20B14020606584F8A9
:101460003570BAE7206846612046FFF70BFA94F81A
:101470005C203F2191408160656584F835700020D3
:10148000ACE700003F8010F070B5044690F83400DF
:10149000002501280CD0012084F8340094F8356030
:1014A0000020012E06D084F834000225284670BDA5
:1014B000022070BD022684F8356060652046FFF783
:1014C0001FFA2068016841F001010160EEE70000A9
:1014D0002DE9F84FDFF8F8A10022012403254FF091
:1014E0000F090AF1040BAAF1040E00BF0B6804FAFD
:1014F00002F63340B34270D10F7907F00307012F92
:1015000001D0022F16D187684FEA420805FA08FC7D
:1015100027EA0C07D1F80CC00CFA08FC4CEA070CBF
:10152000C0F808C04768B7430E79C6F30016964066
:101530003E4346600E79F643B6070AD0C7684FEAC5
:10154000420C05FA0CF6B7438E6806FA0CF63E43D9
:10155000C6600E7906F00306022E10D1D60800EB05
:101560008608D8F8206057074FEAD76C09FA0CF7BD
:10157000BE430F6907FA0CF73743C8F820700668B6
:101580004FEA420C05FA0CF7BE430F7907F0030748
:1015900007FA0CF7374307604E6816F4403F1CD03B
:1015A0004C4E376847F480473760366822F00307AF
:1015B00006F480460096484E07EB060CDCF80868F7
:1015C00097073F0F09FA07F826EA0806DFF80C81AB
:1015D000404503D14FF0000841E072E0DFF80081A0
:1015E000404502D14FF0010839E0DFF8F88040456E
:1015F00002D14FF0020832E0DFF8EC80404502D122
:101600004FF003082BE0DFF8E480404502D14FF0B3
:10161000040824E0DFF8D880404502D14FF00508E7
:101620001DE0DFF8D080404502D14FF0060816E0FB
:10163000DFF8C480404502D14FF007080FE0DFF823
:10164000BC80404502D14FF0080808E0DFF8B080C8
:10165000404502D14FF0090801E04FF00A0808FAAE
:1016600007F848EA0608CCF80888DAF80060574618
:10167000D1F804C09E435FEACC2C00D51E433E60E7
:10168000DBF800605F46D1F804C09E435FEA8C2C13
:1016900000D51E433E60DEF800607746D1F804C0F6
:1016A0009E435FEA8C3C00D51E433E60084F083FD6
:1016B0003E68D1F804C09E435FEACC3C00D51E438F
:1016C0003E60521C102AFFF411AFBDE8F88F0000F5
:1016D000083C014044380240003001400000024014
:1016E0000004024000080240000C024000100240CA
:1016F0000014024000180240001C0240002002407A
:101700000024024001488068704700002400002047
:1017100002488168027811448160704724000020EB
:101720000B4810B5016841F400710160016841F493
:1017300080610160016841F480710160032000F064
:101740009FF80F2000F006F800F050F8002010BDC0
:10175000003C024030B505461F4887B000240168B0
:1017600041F010010160006806A900F0100000902F
:1017700001A800F031F90498A8B100F04DF940003B
:101780001649174AB0FBF1F11648491E026040F2B3
:10179000E732C0E90324C0E90114846100F046FB8C
:1017A000040003D015E000F037F9E9E70D4800F038
:1017B0006BFB04000DD1362000F034F8102D07D259
:1017C00000222946362000F03BF80748056000E07B
:1017D000012407B0204630BD4038024040420F008F
:1017E00000100040C8080020280000200C4882B0EB
:1017F000016841F480410160006800F4804000907D
:101800000748001F016841F0805101600068002214
:1018100000F0805000900F21901E02B000F010B830
:1018200044380240002809DB00F01F0201219140EA
:101830004009800000F1E020C0F80011704700006E
:10184000F0B40E4B1B680C46C3F30223C3F107052B
:10185000042D00D90425191D072901D2002300E019
:10186000DB1E012606FA05F1491E214099409E40E3
:10187000761E16403143F0BC01F03FBC0CED00E099
:10188000064900F0070208684FF6FF03184040EAD7
:101890000220034A10430860704700000CED00E08E
:1018A0000000FA052DE9F0470E46050065D0DFF887
:1018B0001481D8F80000F7B200F00F00B04207D250
:1018C00088F80070D8F8000000F00F00B04254D142
:1018D00028683D4C810712D5400703D5206840F4A5
:1018E000E05020602878000703D5206840F460406D
:1018F00020602068A96820F0F00008432060287864
:10190000C0072DD0304968680839012812D0022854
:1019100013D0032811D00968890700292DDA21681E
:1019200021F0030101432160FFF7ECFE814641F203
:10193000883A0EE009688903EFE709688901ECE756
:10194000FFF7E0FEA0EB0901514502D90320BDE8F5
:10195000F0872068696800F00C00B0EB810FEFD1D0
:10196000D8F80010404601F00F01B14207D90770C6
:10197000006800F00F00B04201D00120E7E72878AE
:10198000400705D52068E96820F4E050084320604E
:101990002878000706D52068296920F4604040EACD
:1019A000C100206000F058F82168084AC1F3031113
:1019B000515CC8400649086006480068FFF7CAFE47
:1019C0000020C4E7003C024008380240A46400083C
:1019D00030000020280000200F2202600C4A13680B
:1019E00003F003034360136803F0F003836013689C
:1019F00003F4E053C36012684FF4E05303EAD202E9
:101A000002610448006800F00F00086070470000A1
:101A100008380240003C0240044805490068096853
:101A2000044AC1F38221515CC84070473000002055
:101A300008380240B4640008044805490068096891
:101A4000044AC1F34231515CC84070473000002065
:101A500008380240B4640008154810B5006810F05A
:101A60000C02144813D01449042A0FD0082A0ED1AE
:101A70000F4C241F2268236802F03F025B0207D547
:101A80002068C0F38810A0FB010106E0084610BDE5
:101A90002168C1F38811A1FB00010023FEF756FC69
:101AA0002168C1F30141491C4900B0FBF1F010BDB0
:101AB000083802400024F400001BB7002DE9F84F5D
:101AC00004006ED02078DFF84C93C007A9F104051C
:101AD0004AD009F104000168C1F38101012908D04D
:101AE0000068C0F3810002280AD1D9F80000400242
:101AF00006D52868800337D560680028E1D033E038
:101B00006068B0F5803F10D0B0F5A02F286810D0E5
:101B100020F480302860286820F4802028606068E5
:101B2000A8B1FFF7EFFD06460DE0286840F48030CD
:101B3000F4E740F480202860F7E700BFFFF7E2FDFC
:101B4000801B642873D828688003F7D50CE0FFF762
:101B5000D9FD064605E000BFFFF7D4FD801B6428D1
:101B6000F0D828688003F7D42078DFF8AC828007AB
:101B70004FF0000A3ED5A748001D016811F00C0F78
:101B800008D00068C0F3810002280BD1D9F800000A
:101B9000400207D42868800716D5E068012800D1E4
:101BA00012E033E1E068B8B10120C8F80000FFF7A7
:101BB000A9FD064605E000BFFFF7A4FD801B022833
:101BC000C0D828688007F7D52868216920F0F80078
:101BD00040EAC10028600DE0C8F800A0FFF792FDC0
:101BE000064604E0FFF78EFD801B02281FD82868F8
:101BF0008007F7D42078000722D5864F874861698F
:101C0000703771B101210160FFF77CFD064604E0E9
:101C1000FFF778FD801B022809D838688007F7D5C0
:101C20000EE0C0F800A0FFF76DFD064605E082E07B
:101C3000FFF768FD801B02287DD838688007F7D43D
:101C40002078400768D5DFF8CCB100270BF13C0BBA
:101C5000DBF80000C0000BD4DBF8001041F080512D
:101C6000CBF80010DBF80000012700F08050009056
:101C70006B4E3068C00510D4306840F4807030601E
:101C8000FFF740FD009005E0FFF73CFD0099401A8A
:101C9000022850D83068C005F6D55E4EA0686C3674
:101CA00001280FD00528306810D020F001003060E6
:101CB000306820F004003060A068B8B1FFF722FD62
:101CC00000900FE0306840F00100F4E740F00400BD
:101CD0003060F7E7FFF716FD0099411A41F28830AE
:101CE000814266D830688007F4D50EE0FFF70AFD20
:101CF000009007E0FFF706FD0099411A41F2883095
:101D0000814256D830688007F4D42FB1DBF8001038
:101D100021F08051CBF80010A069C8B33D49091DDE
:101D20000968C1F3810102294AD00228504607D030
:101D3000C8F8600000E03CE0FFF7E4FC04463BE04C
:101D40004746C8F86000FFF7DDFC064605E000BF27
:101D5000FFF7D8FC801B02282BD828688001F7D415
:101D6000D4E907010843A16A2E4A490802EB014160
:101D7000626A41EA8211084394F82C1040EA01613A
:101D8000C9F8001001203866FFF7BCFC044606E0E5
:101D90003EE000BFFFF7B6FC001B022809D8286808
:101DA0008001F7D534E000BFFFF7ACFC001B022830
:101DB00002D90320BDE8F88F28688001F4D427E019
:101DC0000128F7D0D9F80000E26900F480019142BF
:101DD0001CD1226A00F03F01914217D147F6C07131
:101DE000626A0140B1EB821F10D1A26A4FF0FF334B
:101DF00000F4403103EB5202B1EB024F06D194F8EC
:101E00002C1000F07060B0EB016F01D00120D1E721
:101E10000020CFE70438024000004742800E4742CE
:101E2000007000400000FFFF7047704710B50400CD
:101E300003D094F83D0010B107E0012010BD002050
:101E400084F83C00204600F01EF8022084F83D0093
:101E5000211D206800F0A6FF012084F8460084F8C8
:101E60003E0084F83F0084F8400084F8410084F884
:101E7000420084F8430084F8440084F8450084F864
:101E80003D00002010BD704790F83D10012901D0A1
:101E900001207047022180F83D100168CA6842F0B5
:101EA0000102CA6000681149884214D0B0F1804F25
:101EB00011D00F4988420ED00E4988420BD00E49EE
:101EC000884208D00D49884205D00D49884202D089
:101ED0000C49884204D1816801F00701062903D02A
:101EE000016841F0010101600020704700000140DD
:101EF0000004004000080040000C004000040140C5
:101F00000040014000180040704770B5044600686A
:101F100001694FF00005C943890715D4C168C94359
:101F2000890711D4E91E01610120207720688069AA
:101F30008007204602D0FFF7E7FF04E000F098F8A2
:101F4000204600F096F8257720680169C9434907C3
:101F500017D4C168C943490713D46FF00401016164
:101F6000022020772068806910F4407F204602D04C
:101F7000FFF7CAFF04E000F07BF8204600F079F894
:101F8000257720680169C943090716D4C168C94388
:101F9000090712D46FF0080101610420207720683E
:101FA000C0698007204602D0FFF7AEFF04E000F0D2
:101FB0005FF8204600F05DF8257720680169C94385
:101FC000C90617D4C168C943C90613D46FF01001FC
:101FD0000161082020772068C06910F4407F204606
:101FE00002D0FFF791FF04E000F042F8204600F035
:101FF00040F8257720680169C943C90708D1C1683D
:10200000C943C90704D1891E0161204600F032F896
:1020100020680169C943090609D4C168C943090692
:1020200005D46FF0800101612046FFF7FDFE2068B6
:102030000169C943490609D4C168C943490605D4A1
:102040006FF040010161204600F01EF82068016930
:10205000C94389060BD4C168C943890607D46FF008
:10206000200101612046BDE87040FFF7DEBE70BD73
:102070007047704700680349884201D1FFF748BBA9
:102080007047000000100040704770477047000024
:10209000F8B5016804460868CA684B6910F00F0F6C
:1020A0004FF0000559D003F0010602F49077374352
:1020B00065D0C10705D0D10503D5216C41F00101E0
:1020C0002164410705D5D90703D0216C41F00201F5
:1020D0002164810705D5D90703D0216C41F00401A3
:1020E0002164010707D502F02001314303D0216CA0
:1020F00041F008012164216C00293AD0800604D502
:10210000900602D5204600F0E0FE20684069216C70
:10211000C0F38010090700D460B3204600F0AEFE83
:1021200020684069400621D52068143050E8001F1F
:1021300021F0400140E80012002AF5D1A06BA8B1BF
:102140006C490165A06BFFF753F8002811D0A06B14
:10215000016D01B0BDE8F040084783060FD5930636
:102160000DD52046BDE8F84000F0AFBE2046FFF791
:102170008DFFF8BD2046FFF789FF2564F8BD266B6B
:102180002023012E79D1C60677D5D60675D50868E5
:10219000486800904869400640D5A16B08684068CF
:1021A0000004000CEAD0A28D8242E7D9E085C8691C
:1021B000B0F5807F2DD020680C3050E8001F21F44E
:1021C000807140E80012002AF5D12068143050E8F0
:1021D000001F21F0010140E80012002AF5D120681B
:1021E000143050E8001F21F0400140E80012002A9E
:1021F000F5D184F83E30256320680C3050E8001F8C
:1022000021F0100140E80012002AF5D1A06BFEF782
:10221000A6FFA08DE18D401A81B229E0A08DE18D4D
:10222000401A81B2E08D0028A8D00029A6D02068ED
:102230000C3050E8002F22F4907240E80026002E67
:10224000F5D12068143050E8002F22F0010240E858
:102250000026002EF5D184F83E30256320680C302E
:1022600050E8002F22F0100240E80023002BF5D1A7
:102270002046FFF70AFFF8BDFFE705062BD5150638
:1022800029D594F83D002128F5D1A068B0F5805FEC
:1022900001D12069B0B1206A411C21622168007817
:1022A0004860E08C401E0004000CE084E3D120680C
:1022B000C16821F08001C1602068C16841F040011F
:1022C000C160D8E7206A0088C0F308004860206A2F
:1022D000801C2062E5E74006CDD55006CBD5CA6804
:1022E000204622F04002CA6084F83D3000F0B5F884
:1022F000C1E700006D2E000870B5040004D094F80A
:102300003D00002510B106E0012070BD84F83C506E
:10231000204600F023F8242084F83D002068C1689E
:1023200021F40051C160204600F030FE20680169B0
:1023300021F4904101612068416921F02A01416145
:102340002068C16841F40051C1602564202084F8F0
:102350003D0084F83E00002070BD000070B586B0DE
:10236000064614216846FEF709F9344C306800250A
:10237000334902220323A0421DD1314810300468A2
:1023800044F080440460006800F0804005900868D4
:1023900040F0100008600868694600F010000590E1
:1023A000D8018DE825000820CDE903302548FFF746
:1023B0008FF806B070BD244CA042FAD120481430EA
:1023C000046844F010040460006800F010000590F8
:1023D000086840F0020008600868694600F00200E2
:1023E0000590C0208DE825000720CDE9033017486F
:1023F000FFF76EF8174C164820604FF00060C4E9F4
:1024000001054014C4E9035080106561C4E9065019
:102410004FF44030C4E908052046FEF7CBFF08B171
:10242000FEF7ADFAB463002205212520A663FFF76D
:1024300007FA2520FFF7F6F9BBE700000078004017
:1024400030380240001002400010014000040240F9
:10245000406402406808002070477047FEE70000B3
:10246000DDE9031288B243BA0748090C49BA8380F0
:10247000C18091B249BA4181110C0173C189491CD3
:10248000C181012141737047FC6F002010B5A0F29B
:102490000120DDE9051200EBC0048BB209485BBAEC
:1024A00000EB4400090C838049BAC18091B249BA5B
:1024B0008181110C8173018A491C01820121C17340
:1024C00010BD00000C7000200B48DDE90312C3882A
:1024D00083828BB25BBA090CC38049BA818191B205
:1024E00049BA0182110C8174C18C491CC18401213B
:1024F00080F8241070470000547000200F4810B579
:102500000D4901600721416000214FF400328160D4
:10251000C0E90312D200426101760122427682763E
:10252000C27601774177FEF7A6FC002803D0BDE80C
:102530001040FEF724BA10BD006400409007002050
:102540000F4810B50D4901600721416000214FF48B
:1025500000328160C0E90312D2004261017601229B
:1025600042768276C27601774177FEF784FC0028B6
:1025700003D0BDE81040FEF702BA10BD006800406D
:10258000B8070020094808B5016841F480010160DE
:102590000068002200F48000009005213A20FFF737
:1025A0004FF9BDE808403A20FFF73CB93038024007
:1025B00030B52E4DB3B02AAC95E80F0084E80F007B
:1025C00000212AA801F01BFC294C1035A06095E8D9
:1025D0000F002EAD85E80F0000212EA801F00FFCA2
:1025E0002249E0601C2220316846FDF76BFF002184
:1025F000684601F017FC1D49E0611C223C3107A828
:10260000FDF760FF002107A801F00CFC174960608E
:102610001C2258310EA8FDF755FF00210EA801F02D
:1026200001FC124920611C22743115A8FDF74AFFF4
:10263000002115A801F0F6FB0C4960611C229031C5
:102640001CA8FDF73FFF00211CA801F0EBFB074988
:10265000A0611C22AC3123A8FDF734FF002123A880
:1026600001F0E0FB206033B030BD0000D46300080F
:1026700000000020154808B5016841F00101016023
:10268000016801F001010091016841F0020101605F
:10269000016801F002010091016841F00801016048
:1026A000016801F008010091016841F080010160BA
:1026B000016801F080010091016841F010010160A2
:1026C000006800F01000009008BD000030380240A3
:1026D0000C4810B50A4901604FF4E1314160002116
:1026E00081600C22C160C0E904128161C161FFF701
:1026F00003FE002803D0BDE81040FEF740B910BD2E
:1027000000780040E00700200E4810B50C49016039
:102710000D4941604FF48051816000214FF4806287
:10272000C0E903120C22C0E90521C161FFF7E4FDF5
:10273000002803D0BDE81040FEF721B910BD00000D
:102740000010014024080020A086010070EE602ADD
:102750000FB572EE812ADFED2E1AB7EE002ACDED0D
:10276000002A70EE202A31EE400A00214FEA0D03C4
:1027700072EE812A30EE201A30EE600ACDED012A89
:102780008DED021A8DED030A03EB810292ED000A32
:1027900001F0A2F9B4EEE10AF1EE10FA05DD92EDD6
:1027A000000A01F099F9F0EE401A491CC9B2042957
:1027B000EAD311EE901A174A914203DD9FED160AF3
:1027C00080EE212A9DED000A20EE020ABDEEC00A2D
:1027D00010EE101A01809DED010A20EE020ABDEEF6
:1027E000C00A10EE101A41809DED020A20EE020A86
:1027F000BDEEC00A10EE101A81809DED030A20EE96
:10280000020ABDEEC00A10EE101AC1800FBD000012
:102810000000000000401C4600401C46FEE7FEE7AA
:1028200010B53E489FED3E1A2DED088BB0EE409A54
:10283000F0EE608AC088A0F2AA5000EE100AF8EE0E
:10284000C00A80EE810ADFED370A20EE208A18EEFA
:10285000100A03F043FD41EC100B00F0C5FCB0EE94
:1028600040AAF0EE60AA18EE900A03F037FD53EC90
:102870001A2B03F03FFB41EC1A0B18EE100A03F081
:102880002DFD41EC100B00F04BFCB0EE40BAF0EE29
:1028900060BA19EE100A03F021FD53EC1B2B03F074
:1028A00029FB53EC1A2B03F02FFC03F097F81E4C76
:1028B000206018EE100A03F011FD41EC100B00F03F
:1028C00093FCB0EE40AAF0EE60AA19EE100A03F0F5
:1028D00005FD53EC1A2B03F00DFB41EC190B18EE20
:1028E000100A03F0FBFC41EC100B00F019FCB0EEF9
:1028F00040AAF0EE60AA18EE900A03F0EFFC53EC49
:102900001A2B03F0F7FA53EC192B03F099F803F0A4
:1029100065F860602046BDEC088B10BD5470002047
:102920008805B64135FA8E3CB000002015491448A0
:102930008B69827A1A708B69C27A5A70B0F9062054
:1029400000EE102AB8EEC00A81ED000AB0F90420AA
:1029500000EE102AB8EEC00A81ED020AB0F900209C
:1029600000EE102AB8EEC00A81ED010AB0F90200AB
:1029700000EE100AB8EEC00A81ED030A70470000AD
:10298000DC6F0020C000002008B502F063FE074C99
:102990000090E07F012806D000F014F8022168467C
:1029A00002F098F9F5E700F003F8F7E7C00000201F
:1029B00010B500F08DF802490020088410BD000019
:1029C000C000002010B5FFF7B1FFBDE8104000F0D7
:1029D00001B8000070B53B4C39482DED028BB1EECB
:1029E0000C8A94ED000A817AC07A60EE080A94EDB0
:1029F000020A032920EE080A06D0022919D0032969
:102A000004D001292AD02BE0022804D003281AD0B0
:102A100001281BD024E01520208494ED011AF0EE4B
:102A2000081ABDEC028B21EE211ABDE8704000F0BF
:102A300065B8032814D10C202084BDEC028BBDE8BE
:102A4000704000F045B81620208433E01720208421
:102A5000BDEC028BBDE8704000F08CB8032806D0B6
:102A600000F036F800202084BDEC028B70BD164DBE
:102A700020202084B5F9060094ED030A00EE900AA8
:102A8000124820EE080AF8EEE00A01F0F5F9BDEE72
:102A9000C00A00231A4610EE100A01B269801846D7
:102AA00001F064FF94ED000A60EE080A94ED020A5A
:102AB00020EE080ABDEC028BBDE8704000F0A2B821
:102AC000DC6F0020C0000020FC6F00201C6F002085
:102AD00000200949024600BF00EBC00301EB43039D
:102AE000401CC0B25A800428F6D300231A46194667
:102AF000184601F063BF00000C7000202DE9F04182
:102B00001948FFF723FE184F184DDFF864800024A2
:102B100004EBC40005EB400604EB0411B6F9060013
:102B200000EE100A37F91400F8EEC00A00EE100AA1
:102B300008EB8100B8EEC00A01F09EF9BDEEC00AB4
:102B4000641CE4B210EE100A042C7080E0D3B5F9D6
:102B50003830B5F92620B5F91410B5F90200BDE8F2
:102B6000F04101F02BBF0000B80000200C700020E5
:102B7000986B00202DE9F041FFF752FE90EC020A1D
:102B80009FED1B1A1B48FFF7E1FD1A4F1A4DDFF8A6
:102B90006C80002404EBC40005EB400604EB041138
:102BA000B6F9060000EE100A37F91400F8EEC00A74
:102BB00000EE100A08EB8100B8EEC00A01F05CF9E3
:102BC000BDEEC00A641CE4B210EE100A042C708042
:102BD000E0D30B4800F08CFFB5F93830B5F926206A
:102BE000B5F91410B5F90200BDE8F04101F0E6BEF8
:102BF0000000FA44B80000200C700020986B002000
:102C0000606F00202DE9F04129482DED028BF0EE98
:102C1000408AC088B0EE608A00EE100A2648F8EEBE
:102C2000400A9FED240A01F07AF9BDEEC00A10EEC9
:102C3000100AB0EE680A01B200EE901A1F48B8EE12
:102C4000E01AF0EE480AFFF781FD1C4F1C4DDFF83B
:102C50007480002404EBC40005EB400604EB04116F
:102C6000B6F9060000EE100A37F91400F8EEC00AB3
:102C700000EE100A08EB8100B8EEC00A01F0FCF883
:102C8000BDEEC00A641CE4B210EE100A042C708081
:102C9000E0D3B5F93830B5F92620B5F91410B5F9F7
:102CA0000200BDEC028BBDE8F04101F087BE0000E0
:102CB000547000200040B544D86E0020B8000020B9
:102CC0000C700020986B002010B5502080F3118804
:102CD000BFF34F8FBFF36F8F02F0C2FC18B10449EE
:102CE0004FF080500860002080F3118810BD000074
:102CF00004ED00E030B593B030216846FDF73EFCAE
:102D000014210CA8FDF73AFC1D480025016841F08C
:102D100080510160006800F08050119019480168EE
:102D200041F4404101600068022400F440401190E9
:102D300001200090000401908001CDE906400620AA
:102D40000890A820CDE9090404200B906846FEF7FE
:102D5000B5FE08B172B6FEE70CA90F2081E831007C
:102D60004FF4A0500F904FF48050109005210CA804
:102D7000FEF798FD002801D072B6FEE713B030BD13
:102D800040380240007000400248016841F4700180
:102D90000160704788ED00E00148FFF7B6B8000019
:102DA000C8080020F0B50268254C264D264E274F56
:102DB000274B4FF0804CA04209D0604507D0A84275
:102DC00005D0B04203D0B84201D0984204D122F0DD
:102DD000700E4A6842EA0E02A0421BD0604519D02C
:102DE000A84217D0B04215D0B84213D0984211D0A3
:102DF000184DA8420ED0184DA8420BD0174DA8422E
:102E000008D0174DA84205D0164DA84202D0164D45
:102E1000A84203D122F44075CA682A434D6922F0C2
:102E200080022A4302608A68C2620A688262A04203
:102E300001D0984201D10969016301214161F0BDCE
:102E4000000001400004004000080040000C004069
:102E5000000401400040014000440140004801409E
:102E600000180040001C00400020004010B5806B9E
:102E70000021C185C184FFF709F910BD01680C313B
:102E800051E8002F22F4907241E80023002BF5D185
:102E90000168143151E8002F22F0010241E80023BB
:102EA000002BF5D1016B012909D101680C3151E8E2
:102EB000002F22F0100241E80023002BF5D1202141
:102EC00080F83E1000210163704708B590F83E106D
:102ED000222901D0022008BD82684FF480539A4213
:102EE00001D1016921B1816A9A421BD04AB10AE03D
:102EF0000268816A5268C2F308020A80816A891CEA
:102F000008E0026972B10268526802F07F020A703A
:102F1000816A491C8162C18D491E0904090CC18561
:102F200003D019E002685268F1E70168CA6822F02C
:102F30002002CA600168CA6822F48072CA6001680F
:102F40004A6922F001024A61202180F83E10016B9B
:102F5000012903D0FFF780FA002008BD002101639A
:102F600001680C3151E8002F22F0100241E80023E3
:102F7000002BF5D101680A68D20602D50A684968B3
:102F80000091818DFFF781F8E6E7000070B50446F7
:102F900000680169E26821F440511143016121692F
:102FA000A068E26908436169114308432168CA685F
:102FB00049F20C639A430243CA6020684169A269DE
:102FC00021F440711143416131492068884202D0A7
:102FD0003049884202D1FEF72FFD01E0FEF71CFDCB
:102FE000E2690023192164253226B2F5004F626898
:102FF00028D0A0FB0101930F9200FDF7A7F901462D
:10300000B0FBF5F06FF01802504301EB800006EBC7
:103010000010B0FBF5F000F0F002B1FBF5F002EBB0
:103020000012B1FBF5F06FF01803584301EB80007C
:1030300006EB0010B0FBF5F000F00F002168104423
:10304000886070BDA0FB010192185B41FDF77EF91D
:103050000146B0FBF5F00201B1FBF5F06FF018038B
:10306000584301EB800006EBC000B0FBF5F000F028
:10307000F80002EB4002B1FBF5F0584301EB800091
:1030800006EBC000B0FBF5F000F00700D6E700004B
:10309000001001400014014038B50A4C2068016856
:1030A000C90609D5C068C00606D5204601F0AEFCA9
:1030B0002068016840680090BDE838400148FEF78C
:1030C000E7BF000024080020FEE703B40198410098
:1030D000009850EAC12018BF04204A0D18BF40F0E4
:1030E000010040F2FF72B2EB515F08BF40F00200F6
:1030F000012808BF052002B070470907090E002803
:1031000004DB00F1E02080F80014704700F00F00AD
:1031100000F1E02080F8141D70470000000000005E
:1031200010B52F499FED2C1B2DED020B84B0059897
:1031300020F000408842D8BF9DED040B2DDD2949C9
:10314000884209D1049840B94FF00100FDF745FAD3
:1031500000F0A2FC06B010BD05DB9DED040B00F0F5
:103160008FFC06B010BD68469DED040B00F0A0F882
:1031700010F0030004BF9DED021B9DED000B0CD071
:1031800001280ED09DED021B9DED000B022817D0EB
:10319000012000F0DDFB06B010BD00F0A5FA06B07E
:1031A00010BD9DED021B9DED000B012000F0D0FB3A
:1031B00051EC100B02F006FC06B041EC100B10BDF8
:1031C00000F092FA51EC100B02F0FCFB06B041EC5F
:1031D000100B10BD00000000000000000000000007
:1031E000FB21E93F0000F07F10B52F499FED2C1B1C
:1031F0002DED020B84B0059820F000408842DCBF22
:1032000000209DED040B32DD2849884209D1049845
:1032100040B94FF00100FDF7E0F900F03DFC06B0C9
:1032200010BD05DB9DED040B00F02AFC06B010BDBF
:1032300068469DED040B00F03BF810F0030011D040
:10324000012818D09DED021B9DED000B02281AD01D
:1032500000F04AFA51EC100B02F0B4FB06B041EC5E
:10326000100B10BD9DED021B9DED000B012000F029
:103270006FFB06B010BD9DED021B9DED000B00F035
:1032800033FA06B010BD012000F062FB51EC100BC8
:1032900002F098FB06B041EC100B10BD00000000DE
:1032A0000000000000000000FB21E93F0000F07F6B
:1032B0002DE9F14F04462DED020B2DED088B8AB060
:1032C0009FEDE70B80ED020B139EE74826F00045CB
:1032D00085420ADC9DED120B002084ED000B0AB044
:1032E000BDEC088B03B0BDE8F08FE0489FEDE0AB8C
:1032F0009FEDE1BBA84247DDE14F9FEDE39B9FEDD2
:10330000E48B9DED120B53EC1A2B51EC100B002E9D
:103310001CDD02F0F9FE41EC100BBD4208D053EC6D
:103320001B2B51EC100B02F0EFFEC4E900010BE087
:1033300053EC192B51EC100B02F0E6FE53EC182B5A
:1033400002F0E2FEC4E900010120C8E702F078FBC8
:1033500041EC100BBD4208D053EC1B2B51EC100B71
:1033600002F06EFBC4E900010BE053EC192B51ECA9
:10337000100B02F065FB53EC182B02F061FBC4E963
:1033800000014FF0FF30AAE7C348A84279DB9DED6A
:10339000120B51EC100B00F081FC41EC180B9FED6F
:1033A000C00B53EC102B02F0A5FD9FEDBF1B53EC9F
:1033B000112B02F045FB02F043FD074602F06FFDC2
:1033C00041EC190B53EC1A2B02F094FD53EC182B23
:1033D00002F08EFE41EC180B53EC1B2B51EC190B39
:1033E00002F088FDDFF8C8A241EC100B4FEA155837
:1033F0000125FA4453EC102B51EC180B02F084FE1B
:10340000032DC4E900013DD0C1F30A5005EB45117D
:10341000A8EB00001139814234DA0AEB051BB0EE4B
:1034200048AA9BED000BF0EE68AA53EC102B51EC70
:10343000190B02F05FFD41EC1B0B51EC1A0B53EC26
:103440001B2B02F061FE41EC180B51EC1A0B53ECF4
:10345000182B02F059FE53EC1B2B02F055FE9BED8E
:10346000020B41EC1A0B53EC102B51EC190B02F030
:1034700041FD53EC1A2B02F047FE41EC100B6D1C82
:10348000B8E70EE0002EA8BF3846BFF628AF94ED8F
:10349000000B51EC100B02F095FAC4E900017842E0
:1034A0001DE7C6F3130040F4801EC6F30A50A0F2D5
:1034B000F530471100F01F05C5F12000DDF848B0D8
:1034C00008900020069007900520EC467949002DD1
:1034D00007EB0002794408BF51F8221009D051F8D7
:1034E000223001EB8201AB404A68089922FA01F1CF
:1034F0001943A1FB0E26A1FB0B131A449A4234BFB9
:103500000123002303EB06080CEB8003D3E901A69B
:103510000E448E4234BF0121002192448A4411B1ED
:10352000924502D903E0924501D2012100E0002139
:10353000C3E901A641444CF82010011EA0F101008E
:10354000C4DC029800F10050850F0298DDE90367A2
:103550008000DDF8148002F0A2FC41EC1A0B30462A
:1035600002F0B4FC9FED541B53EC112B02F0C2FC93
:1035700041EC1B0B384602F0A9FC9FED511B53ECAC
:10358000112B02F0B7FC41EC180B404602F09EFCF8
:103590009FED4D1B53EC112B02F0ACFC41EC190BD1
:1035A00051EC180B53EC192B02F04AFA53EC1B2B7D
:1035B00002F046FA53EC1A2B02F042FACDE9080168
:1035C000002008909DED080B53EC1A2B51EC100BCA
:1035D00002F09AFD53EC1B2B02F096FD53EC182BD6
:1035E00002F092FD53EC192B02F082FD9FED381B87
:1035F00053EC112B02F07EFC9FED370B41EC180BC6
:1036000053EC102B9DED080B51EC100B02F072FCEB
:1036100053EC182B02F014FA9FED310B41EC180B10
:1036200053EC102B9DED080B51EC100B02F062FCDB
:1036300053EC182B02F004FA41EC100B139810F025
:10364000004F06D06D4251EC100B02F0BBF941EC7B
:10365000100B284684ED000B41E60000000000003E
:103660000000000000000000FB21E93F7CD902407F
:1036700000004054FB21F93F3163621A61B4D03D30
:10368000FB21F93F000000000000601A61B4D03D4A
:103690007370032E8A19A33BFB21394100000000FF
:1036A00083C8C96D305FE43F000000000000E03FC8
:1036B000FA30000048300000000000000000103E1A
:1036C000000000000000103C000000000000103A64
:1036D000182D4454FB21F93D3326A611460B113C0D
:1036E00000000054FB21F93D10B52DED040B2DED2C
:1036F000088B82B0B0EE419AF0EE619A0B9820F000
:1037000000449FED4BABB4F1795F11DA9DED0A0BEC
:1037100051EC100B02F094FB002801BFB0EE4A0AF6
:10372000F0EE6A0A02B0BDEC088B04BF04B010BD15
:103730009DED0A0B53EC102B51EC100B02F0DAFB51
:1037400041EC180B3C480621B0EE480AF0EE680A3E
:10375000784400F081F853EC182B51EC100B02F078
:10376000C9FB9DED0A0B41EC1B0B53EC192B51ECE3
:10377000100B02F0BFFB41EC190B53EC1B2B51EC6F
:10378000180B02F0B7FB53EC192B02F0BDFC9FEDB8
:103790002C0B41EC190B53EC102B51EC180B02F0D5
:1037A000A9FB41EC100B2848844210DA53EC192B8A
:1037B00051EC100B02F0A8FC53EC1A2B02F098FC11
:1037C00041EC100B02B0BDEC088B04B010BD1F48DB
:1037D000A042BCBF9FED1E1B8DED001B06DBA4F5B8
:1037E00000100190002000909DED001B51EC100B8B
:1037F00053EC112B02F088FC9DED000B41EC180BF3
:1038000053EC102B51EC1A0B02F07EFC41EC1A0B1E
:1038100053EC192B51EC180B02F076FC53EC1A2BDD
:1038200002F066FC41EC100BCCE700000000000049
:10383000000000000000F03F6C2D000000000000C0
:10384000000000000000E03F3333D33F0000E93FB9
:10385000000000000000D23F70B504462DED028B41
:103860004D1E00EBC500B0EE408AF0EE608A90ED90
:10387000000B35F0060017D053EC182B51EC100B51
:1038800002F038FB41EC100B6D1E04EBC50090ED0F
:10389000001B51EC100B53EC112B02F0D1F841EC52
:1038A000100B35F00600E7D1022D36D0042D1CD0C8
:1038B000062D1CBFBDEC028B70BD53EC182B51ECD8
:1038C000100B02F017FB94ED0A1B53EC112B02F0C6
:1038D000B7F853EC182B02F00DFB94ED081B53ECDA
:1038E000112B02F0ADF841EC100B53EC182B51ECFE
:1038F000100B02F0FFFA94ED061B53EC112B02F0B3
:103900009FF853EC182B02F0F5FA94ED040B53ECEE
:10391000102B02F095F841EC100B53EC182B51ECE6
:10392000100B02F0E7FA94ED021B53EC112B02F09E
:1039300087F853EC182B02F0DDFA94ED001B53ECE2
:10394000112B02F07DF8BDEC028B41EC100B70BD29
:1039500031B504462DED040B2DED0A8BB0EE41BAC6
:10396000F0EE61BA0B989DED0A0B20F00040B0F12B
:10397000795F0DDA51EC100BFFF7A7FB042808BFA5
:1039800000F09AF89DED0A0BBDEC0A8B05B030BD36
:1039900053EC102B51EC100B02F0ACFA41EC180B6D
:1039A0009DED0A0B53EC182B51EC100B02F0A2FA10
:1039B00041EC190B2C48B0EE480AF0EE680A0521DC
:1039C0007844FFF749FF9FED2ACBB0EE40AAF0EE16
:1039D00060AA9CB353EC1C2B51EC190B02F08AFA31
:1039E00041EC1C0B53EC1A2B51EC190B02F082FA30
:1039F0009FED210B41EC190B53EC102B51EC1B0BE1
:103A000002F078FA53EC192B02F07EFB53EC182BE2
:103A100002F070FA53EC1B2B02F076FB53EC1C2BDC
:103A200002F072FB9DED0A1B53EC112B02F060FBC0
:103A3000BDEC0A8B05B041EC100B30BDFFE753EC39
:103A40001A2B51EC180B02F055FA53EC1C2B01F019
:103A5000F7FF53EC192B02F04DFA9DED0A1B53ECC6
:103A6000112B01F0EDFFE3E7F42B00000000000054
:103A7000495555555555C5BF000000000000E03FB1
:103A800010B553EC102B51EC100B01F0D9FF41ECA9
:103A9000100B10BD000000009FED050B10B553EC9E
:103AA000102B51EC100B02F073F841EC100B10BD11
:103AB00000000000000000009FED050B10B553EC66
:103AC000102B51EC100B02F015FA41EC100B10BD4D
:103AD0000000000000000010B5EEC00AF1EE10FA80
:103AE00001D2B1EE400ABDEEC00AB8EEC00A70477E
:103AF00070B5554C2DED068BB4F9380000EE100A68
:103B0000B8EEC00AB0EEC00A10EE100A02F0E6FBF2
:103B100041EC190BB4F9260000EE100AB8EEC00A09
:103B2000B0EEC00A10EE100A02F0D8FB41EC1A0BFE
:103B3000B4F9140000EE100AB8EEC00AB0EEC00AE4
:103B400010EE100A02F0CAFB41EC180BB4F90200A7
:103B500000EE100AB8EEC00AB0EEC00A10EE100A6D
:103B600002F0BCFB53EC182B01F06AFF53EC1A2B4C
:103B700001F066FF53EC192B01F062FF02F060F9CF
:103B80003249002201F16C03C1F8000002EBC205CA
:103B900004EB4505B5F9025000EE105A03EB82051F
:103BA000521CF8EEC00A00EE100A042AB8EEC00A51
:103BB00080EE801A85ED001AE8DB244A244D60323D
:103BC00092ED020A10EE102AAA4210DAB3EE0E1A93
:103BD000C0EE010A00EE100AB8EEC00AC1ED020AFA
:103BE00020EE200ABDEEC00A81ED010A04E010EECD
:103BF000102AAA4200DB486091ED010A002000BFB4
:103C000003EB8001F8EEC00A91ED001A60EE810A24
:103C100010EE901A21F00041C1F1FF4100290CD4AF
:103C2000F8EEC00A00EBC00204EB420260EE810A2B
:103C3000FDEEE00A10EE901A5180401C0428DFDBF4
:103C4000BDEC068B70BD00000C700020606F002082
:103C50000000704238B50F480021006802684268D1
:103C60000092C26842F01002C2600A4C0A4A94F8FC
:103C70003E0020280DD13223A262A3852164216851
:103C8000A06B091DFDF700FC2068416941F040016F
:103C9000416138BD24080020EA6F002082B0CDE9E0
:103CA000000121F0004001909DED000B02B051ECAD
:103CB000100B7047FDF734FDFFF71CF8FEF7DAFC38
:103CC000FEF760FCFEF71AFCFEF73AFCFEF71CFD5F
:103CD000FEF7FEFCFEF76CFC00F08CF8FEE70146F8
:103CE0000020842900D0C81C7047000000B5344A69
:103CF000DFED343A9FED344ADFED344A9FED343A3C
:103D0000DFED342A002100BFC1EBC10000EB8000D1
:103D100002EB800303F14400B0EE632AF0EE431A95
:103D2000B0EE621AF0EE440AB0EE640A00F058F900
:103D30001846B0EE632AF0EE431AB0EE621AF0EEC7
:103D4000620AB0EE040A00F04BF9491CC9B204291A
:103D5000DAD3B0EE632AF0EE431AB0EE621AF0EE58
:103D6000620AB0EE040A1C4800F03AF91A48B0EEB4
:103D7000632ADFED1A1A9FED1A1AF0EE620A9FED20
:103D8000190A443000F02CF9174ADFED183A9FED7C
:103D9000184A002101EB011002EB8000B0EE632A0B
:103DA000F0EE431AB0EE621AF0EE440AB2EE030AE5
:103DB00000F016F9491CC9B20429EBD300BD00007C
:103DC000A86C002000401C460AD7233C0000FA43A0
:103DD0000060EA4600000000D86E002000007A442F
:103DE000CDCC8C3FCDCCCC3E986B002000606A4699
:103DF0009A99993E10B501F04BF8002010BD38B5E6
:103E0000D0E9011204683AB1C3682BB100200090D8
:103E1000204601F052F938BD2046BDE83840002266
:103E200001F02AB97FB50D4604464169B0F9080092
:103E300081B1A16971B1FFF752FFD4E905128DE894
:103E40000700D4E900102B46226901F0CAFB039059
:103E500004B070BDFFF743FF03A9CDE90001208A3C
:103E60002B4682B2D4E9001001F08EFB012801D06C
:103E70000020EDE70398EBE780ED050AC0ED060AA8
:103E800090ED071A70EE600A80ED081AC0ED070A7F
:103E900090ED000A60EE201AC0ED0A1A90ED0B0AB0
:103EA00090ED012A02EE200A70EEC10A80ED0B0AA5
:103EB00090ED021A20EE812A80ED0C2AD0ED030A43
:103EC000B1EE601AB4EEC10AF1EE10FA02D8B0EE0B
:103ED000410A06E0B4EEE00AF1EE10FA01DBB0EEC2
:103EE000600A80ED0B0A31EE800A30EE020A80EDA6
:103EF0000D0AD0ED040AB1EE601AB4EEC10AF1EE7B
:103F000010FA02D8B0EE410A06E0B4EEE00AF1EE93
:103F100010FA01DBB0EE600A80ED0D0A704710B5B3
:103F200080ED050AC0ED060AFDEEE00ABDEEC00A0E
:103F3000044610EE901A10EE100AFCF773FC00EE27
:103F4000100AF8EEC00AC4ED070A94ED000A20EE4C
:103F5000202A84ED0A2A94ED0B0A94ED011A01EE51
:103F6000200A84ED0B0A94ED081AD4ED021A30EE03
:103F7000C11A61EE212AC4ED0C2A94ED031AF1EE68
:103F8000411AB4EEE10AF1EE10FA02D8B0EE610A7D
:103F900006E0B4EEC10AF1EE10FA01DBB0EE410A20
:103FA00084ED0B0A32EE000A30EE220A84ED0D0A8F
:103FB00094ED041AF1EE411AB4EEE10AF1EE10FAB2
:103FC00002D8B0EE610A06E0B4EEC10AF1EE10FAD2
:103FD00001DBB0EE410A84ED0D0AC4ED080A10BD04
:103FE00080EC050A704700002DE9F0411A4C0F469D
:103FF0000546E6682168002081F852002068001D0F
:1040000000F034FD38B9206890F82C100120884069
:10401000216981432161681C07D137B12168BDE85E
:10402000F0410E48091D00F071BD20683544B542CD
:104030004560216805D2A06BBDE8F041091D00F084
:104040004DBD606B091D00F049FDA06A854200D29C
:10405000A562BDE8F0810000340000202C0A002099
:104060002DE9F041054600F05DFD2E4CA068401C96
:10407000A06020682C4F10B1606940B32DE025602E
:10408000A068012829D1002606EB860007EB8000F6
:1040900000F016FD761C072EF6D323488C3000F076
:1040A0000FFD2148A03000F00BFD1F48B43000F098
:1040B00007FD1D48C83000F003FD1B48DC3000F050
:1040C000FFFC19488C3060631430A06305E0206861
:1040D000E96AC06A884200D82560606A401C606254
:1040E000E96A0120226988401043206101EB8100C8
:1040F00007EB8000291D00F009FD00F033FD606929
:1041000000280CD02068E96AC06A884207D20749B3
:104110004FF080500860BFF34F8FBFF36F8FBDE843
:10412000F0810000340000205009002004ED00E080
:1041300038B500F0F7FC104C2068C8B90F4800F003
:10414000BFFC0E48143000F0BBFC0C48E06014309B
:1041500020610A4B0020E83B009003F14802102147
:104160000A2000F0AAFF206010B105A100F07CFD3C
:10417000BDE8384000F0F6BC70000020280B00209D
:10418000546D72510000000030B4026C0B46002ADE
:104190000BD0C1681144C1608468A14201D3016899
:1041A000C16030BC1846FCF748B930BC70472DE9F7
:1041B000F041856B174604460026026C82B1C7B1F8
:1041C000E068FCF73AF9E168206C091AE1602268BE
:1041D000914202D2A168081AE060022F16D017E0BF
:1041E0002068A8B9A06801F0A1FA06460020A060E6
:1041F0000EE06068FCF721F9216C6068084460609B
:10420000A168884204D32068606001E005B16D1E9A
:104210006D1CA5633046BDE8F08110B5044690F8EA
:10422000510058B101280CD002280FD0502080F343
:104230001188BFF34F8FBFF36F8FFEE7206B00F045
:10424000A5FC2046BDE8104000F0A0BC10BD000059
:1042500010484FF4C041420706D0C01D0D4920F060
:104260000700411AC1F5C0410B4A00230144C2E9CD
:1042700000030839183A21F0070111604B600B6008
:104280000B1AC0E9001393604FF000405360506177
:1042900070470000500B00209C000020144E154C6D
:1042A000A6F1C8074FF08058DFF84C9012E000BF2D
:1042B00000F038FCF068C568281D00F0D7FBA06846
:1042C000401EA0606068401E606000F04BFC284605
:1042D000FFF7A3FF60680028EAD138680128F9D900
:1042E000C9F80080BFF34F8FBFF36F8FF2E7000074
:1042F000180A00203400002004ED00E00346009876
:1043000029B10260C0E90F31012100F009BF00604E
:10431000F8E700002DE9F05F8846DDE90B941546CB
:10432000834691009A460A9EA522206BFCF7FCF872
:104330006FF00301206B01EB8501084420F00707B3
:10434000780707D0502080F31188BFF34F8FBFF359
:104350006F8FFEE70025B8F1000F0FD05FF000006F
:10436000221818F8001082F8341018F8001011B153
:10437000401C1028F4D384F8435001E084F83450F2
:10438000072E00D30626E662C4E91165201D00F061
:10439000A2FB04F1180000F09EFB2461C6F10700A7
:1043A0006462A061E56484F8505084F8525052462B
:1043B0005946384600F05AFA2060B9F1000F01D092
:1043C000C9F80040BDE8F09F30B5114900E0114642
:1043D0000A688242FBD34B685C18844203D1406870
:1043E00018444860084643681C18944209D1084C98
:1043F000183C2468A24209D052681A4442600A68F4
:1044000012680260814200D0086030BD0460F9E7A4
:104410009C00002070B5002441600B4D006191426A
:1044200006D8D11A8269914206D2011D286907E097
:104430009A4203D2994201D3012403E0011DE868A6
:1044400000F04CFB204670BD7000002010B5044603
:1044500000F068FBA06B28B15FF0000400F082FB65
:10446000204610BD0124F9E730B589B03C4D6EE01F
:104470000498002806DADDE90601059A90470498B9
:10448000002864DB069C606910B1201D00F0EEFA84
:1044900003A800F0D7F8024604980A2857D2DFE8AC
:1044A00000F00505052D334A05052D3394F8240049
:1044B00040F0010084F824000599A069059B01449F
:1044C0002046FFF7A7FF68B3216A2046884794F883
:1044D000240040073BD5002000900598A1690023E7
:1044E00042181946204601F039FAD8B9502080F315
:1044F0001188BFF34F8FBFF36F8FFEE714F8240FBF
:1045000020F00100207022E094F8240040F0010027
:1045100084F824000598A06128B18118134620462C
:10452000FFF778FF13E0502080F31188BFF34F8F1F
:10453000BFF36F8FFEE794F82400810703D4204671
:1045400000F024FB03E020F0010084F824000022A6
:1045500004A9286800F038FF002889D109B030BDCF
:10456000700000202DE9FC410F46054600F0D4FC08
:1045700001A800F067F80446019818B101F05CF951
:10458000BDE8FC81254EAFB130690068D0B300278B
:10459000291B3A46306800F07BFB01F04DF90028FA
:1045A000EED11F494FF080500860BFF34F8FBFF32B
:1045B0006F8FE5E7A542EBD801F03EF9F06827469A
:1045C000C068C468201D00F051FA94F82400410727
:1045D00019D5A0692B4641193A462046FFF71AFF24
:1045E000A8B100200346014600902A46204601F06B
:1045F000B5F960B9502080F31188BFF34F8FBFF336
:104600006F8FFEE707E020F0010084F82400216AA4
:1046100020468847B4E70127BAE700007000002071
:1046200004ED00E00648416B096829B1416BC96897
:10463000C9684968816270474FF0FF31FAE70000AE
:104640003400002070B5054601F004F8064E04461B
:10465000B068844203D200F009F8012000E0002095
:1046600028602046B46070BD70000020F8B5194D78
:1046700020E0C068C4680668201D00F0F7F9216AD0
:104680002046884794F82400400713D5A069304499
:10469000B04206D924616060211DE86800F01EFA6E
:1046A00008E000200346014600903246204601F013
:1046B00055F938B1E86801680029DAD12969C5E9F6
:1046C0000310F8BD502080F31188BFF34F8FBFF364
:1046D0006F8FFEE77000002008484068401C4FF0D4
:1046E000500080F3118804D0BFF34F8FBFF36F8F5A
:1046F000FEE7BFF34F8FBFF36F8FFEE7A4000020EC
:10470000074CE068016841B1C0680021D0F80000A2
:10471000FFF728FFFFF7A8FEF3E701210020F7E7E6
:10472000700000202DE9F041044600F0FBF994F9F7
:10473000455004F1240609E0606A48B1304601F0B2
:1047400041F808B100F06AFB6D1E6DB2002DF3DC7C
:104750004FF0FF3684F8456000F004FA00F0E2F90B
:1047600094F9445004F1100709E0206948B1384633
:1047700001F028F808B100F051FB6D1E6DB2002D5C
:10478000F3DC84F84460BDE8F04100F0EBB90000D0
:104790002DE9F0410546002700F0BEFB324E30689F
:1047A00008B9FFF755FD706905424ED1C5B308350C
:1047B00068070ED005F00700C0F10800054468073F
:1047C00007D0502080F31188BFF34F8FBFF36F8F56
:1047D000FEE72DB37068854237D82348183001466C
:1047E0000C6801E020460C466168A94202D22168AB
:1047F0000029F7D131688C4227D007682168016011
:1048000060680837411B10290FD96019420708D08A
:10481000502080F31188BFF34F8FBFF36F8FFEE7F7
:1048200013E041606560FFF7CFFD61687068401A72
:104830007060B268904200D2B0607069014300209D
:10484000C4E90001F068401CF06000F0F5FF780753
:1048500007D0502080F31188BFF34F8FBFF36F8FC5
:10486000FEE73846BDE8F0818400002010B5031F44
:104870004FF080741C601B1F21F001011960191F8B
:10488000044B0B6014390A60091F6FF002024438B0
:104890000A6010BDD9460008F0B40A88C2F30A05C0
:1048A000A5F5806505804A788B78D20842EA4312E4
:1048B000C2F30A04A4F5806444808A78CB78920914
:1048C00042EA83020B796D1D42EA8322C2F30A0396
:1048D000A3F5806383800A794E79520842EAC612B2
:1048E000C2F30A02A2F58062C2800E8AC6F30A06EB
:1048F000A6F58066068100260A2D00D80680641D74
:104900000A2C00D846805B1D0A2B00D88680521DD9
:104910000A2A00D8C6804A79920982724979C1F37D
:104920000111C172017B491C0173B0F900204FF4E1
:10493000A56102F525728A4211D8B0F9022002F56C
:1049400025728A420BD8B0F9042002F525728A42FA
:1049500005D8B0F9062002F525728A4203D9F0BCC9
:104960000E21FBF7E9BDF0BC7047000010B588B020
:1049700040F2FF1402940024049405940824069441
:10498000040A8DF800408DF80100080A8DF8020035
:10499000100A8DF804008DF80520180A8DF806001D
:1049A0008DF803108DF8073001236A4602A90248EA
:1049B000FBF7F9FF08B010BDB807002010B588B0AC
:1049C0004FF400740294002404940594082406947F
:1049D000040A8DF800408DF80100080A8DF80200E5
:1049E000100A8DF804008DF80520180A8DF80600CD
:1049F0008DF803108DF8073001236A4602A902489A
:104A0000FBF7D1FF08B010BDB807002038B501682A
:104A10000A68D20624D5CA68D20621D50446086899
:104A2000486800900F4884421AD1A06B0068016862
:104A300021F001010160A06B0068406880B220286D
:104A400004D10949A1F10E00FFF726FFA16B322026
:104A500009684860A06B0068016841F001010160CD
:104A600038BD000024080020EA6F0020D0E90132A0
:104A700001699A60D0E901235A604A68824201D1F3
:104A800082684A60002202610868401E0860086867
:104A900070470000034B036003F15400086080205E
:104AA00010607047E8000020044B036003F15400DD
:104AB00008604FF480701060704700003C030020D5
:104AC00000F108014FF0FF32C0E90112C16001613D
:104AD00000210160704700210161704730B50B680B
:104AE0005A1C02D000F1080202E0026904E02246EA
:104AF000546825689D42FAD953684B6099608A6072
:104B0000516008610168491C016030BD42684A601B
:104B100093688B6093685960916008610168491CD3
:104B200001607047502080F31188BFF34F8FBFF3AF
:104B30006F8F0A494868401C486001280CD108481A
:104B4000006810F0FF0F07D0502080F31188BFF3EA
:104B50004F8FBFF36F8FFEE770470000A400002067
:104B600004ED00E00849486828B1401E486001D1C2
:104B700080F311887047502080F31188BFF34F8F66
:104B8000BFF36F8FFEE70000A400002070B500287F
:104B90002AD0164DA0F1080460686969084207D15F
:104BA000502080F31188BFF34F8FBFF36F8FFEE764
:104BB00022683AB1502080F31188BFF34F8FBFF3C2
:104BC0006F8FFEE78843606000F0A6F9606869684F
:104BD000084468602046FFF7F7FB2869401C2861FD
:104BE000BDE8704000F028BE70BD000084000020C9
:104BF0004FF0E02000210161816105494FF47A7294
:104C00000968B1FBF2F1491E41610721016170475A
:104C10003000002010B5FBF775FB114910280ED3AA
:104C200000F1E02090F8F0030A78904207D250207B
:104C300080F31188BFF34F8FBFF36F8FFEE70948F2
:104C40000068896800F4E060884207D9502080F34A
:104C50001188BFF34F8FBFF36F8FFEE710BD0000C9
:104C6000A40000200CED00E010B5084B002200BFAE
:104C700053F832401CB1521C082AF9D310BD43F836
:104C8000321003EBC201486010BD00001009002083
:104C900070B515460E460446FFF744FF94F94410DC
:104CA0000020491C01D184F8440094F94510491CA6
:104CB00001D184F84500FFF755FFA06B28B92A46BB
:104CC000314604F1240000F0C7F82046BDE87040EA
:104CD000FFF728BD70B50D4604000BD095B11E4AF4
:104CE000106BB8B1502080F31188BFF34F8FBFF322
:104CF0006F8FFEE7502080F31188BFF34F8FBFF313
:104D00006F8FFEE7502080F31188BFF34F8FBFF302
:104D10006F8FFEE700F000F9D268236859199342BB
:104D200004D98B420AD9914202D807E08B42FAD9C2
:104D3000881A21600021FFF757F900E0216000F098
:104D40007BFD002807D105494FF080500860BFF374
:104D50004F8FBFF36F8F70BD3400002004ED00E073
:104D600070B50546FFF7DEFE254C05B92568281D00
:104D7000FFF77CFE58B9E86A224A00EB800152F83E
:104D8000211021B901218140206988432061A86A4E
:104D900018B105F11800FFF769FE606A401C6062F7
:104DA0002068854208D11748291DC830FFF7AEFE9C
:104DB0006068401C606007E0A068401EA060284654
:104DC000FFF72BFAFFF72EFCFFF7CCFE60690028F7
:104DD00014D02068854211D1206B38B1502080F367
:104DE0001188BFF34F8FBFF36F8FFEE706494FF077
:104DF00080500860BFF34F8FBFF36F8F70BD00000E
:104E0000340000205009002004ED00E002490A6A45
:104E10000260C968416070473400002001490120E8
:104E2000C86170473400002010B50C4650B10949E4
:104E300009681831FFF752FE2046BDE810400121F5
:104E4000FFF7D2B8502080F31188BFF34F8FBFF324
:104E50006F8FFEE73400002070B514460D4668B130
:104E60000A4909681831FFF751FE0CB14FF0FF35C0
:104E700021462846BDE87040FFF7B6B8502080F3C1
:104E80001188BFF34F8FBFF36F8FFEE73400002010
:104E900030B587B00024039405AA04A903A804949C
:104EA000FFF7F8FDDDE903010094CDE901100023CF
:104EB00015A11748059A00F094FB164D0028E862EA
:104EC0001FD000F01BFD012809D0401C19D1502033
:104ED00080F31188BFF34F8FBFF36F8FFEE7502031
:104EE00080F31188BFF34F8FBFF36F8F4FF0FF3008
:104EF000A86201206861EC6007B0BDE8304000F0B6
:104F000041B807B030BD000049444C4500000000E6
:104F10009D420008340000200248016B491C0163D7
:104F200070470000340000201448016B11B10121CA
:104F3000C16170470021C1610169B1FA81F1C1F11C
:104F40001F0101EB81020E4951F822306BB101EBD8
:104F5000820101F108034A6852684A609A4201D10D
:104F600052684A60D16801607047502080F3118810
:104F7000BFF34F8FBFF36F8FFEE7000034000020B8
:104F8000500900201CB537480168374A914207D1C3
:104F9000502080F31188BFF34F8FBFF36F8FFEE770
:104FA00000683149491E884207D1502080F311889A
:104FB000BFF34F8FBFF36F8FFEE72C490878019046
:104FC000FF20087008788DF800009DF800009DF81B
:104FD000002000F0F000904207D0502080F31188AC
:104FE000BFF34F8FBFF36F8FFEE79DF80000204C9B
:104FF00000F0500020700720A06005E09DF8002020
:1050000052008DF80020401E9DF800201206F5D4B5
:10501000A060032807D0502080F31188BFF34F8F82
:10502000BFF36F8FFEE74FF44070A06001980870E7
:105030000C482030016841F470010160016841F0C2
:1050400070410160FFF7D4FD00206060FBF722F99A
:105050000848016841F040410160FBF707F9002072
:105060001CBD000000ED00E071C20F4100E400E053
:10507000A400002034EF00E0F8B517460E46050006
:1050800013D005FB06F04830FFF782FB04000AD07E
:10509000002084F8460004F148023B463146284689
:1050A0000094FFF72BF92046F8BD502080F31188BB
:1050B000BFF34F8FBFF36F8FFEE738B5049D18B174
:1050C00053B1CAB181B120E0502080F31188BFF301
:1050D0004F8FBFF36F8FFEE7502080F31188BFF32F
:1050E0004F8FBFF36F8FFEE7502080F31188BFF31F
:1050F0004F8FBFF36F8FFEE739B1502080F31188D7
:10510000BFF34F8FBFF36F8FFEE748241C46012388
:1051100084F846302B460094FFF7F0F8204638BD5F
:1051200070B50D46040025D0FFF7FCFCD4E90F2034
:10513000216802FB0011A1600021A1632168616068
:105140000A46D4E90F01401E00FB0121E16021461F
:105150004FF0FF3001F8440F487004F110008DB19A
:10516000FFF7AEFC04F12400FFF7AAFCFFF7FAFCFE
:10517000012070BD502080F31188BFF34F8FBFF323
:105180006F8FFEE721690029F0D000F01BFB00289B
:10519000ECD004494FF080500860BFF34F8FBFF34D
:1051A0006F8FE3E704ED00E02DE9FF4782B01D4675
:1051B0008A464FF00008040003D0BAF1000F08D06F
:1051C00011E0502080F31188BFF34F8FBFF36F8F32
:1051D000FEE7206C38B1502080F31188BFF34F8F69
:1051E000BFF36F8FFEE7022D0AD1E06B012807D0D5
:1051F000502080F31188BFF34F8FBFF36F8FFEE70E
:1052000000F01AFA3F4F4FF000094FF0805648B9AE
:10521000049838B1502080F31188BFF34F8FBFF34B
:105220006F8FFEE7FFF77EFCA06BE16B884207D330
:10523000022D05D00498D0B1B8F1000F1AD01EE0AD
:105240002A4651462046FEF7B2FF616A19B104F1C1
:10525000240000F0B7FA20B13E60BFF34F8FBFF3D8
:105260006F8FFFF77FFC012006B0BDE8F087FFF7E6
:1052700079FC22E06846FFF7C9FD4FF00108FFF70F
:1052800071FCFFF749FEFFF74DFC94F94400401C08
:1052900001D184F8449094F94500401C01D184F870
:1052A0004590FFF75FFC04A9684600F029F930B18A
:1052B0002046FFF737FA00F0BFFA0020D4E7FFF7E7
:1052C00031FCA06BE16B884213D1FFF74BFC04F17A
:1052D00010000499FFF7A8FD2046FFF723FA00F01D
:1052E000ABFA00289ED13E60BFF34F8FBFF36F8FA4
:1052F00098E7FFF737FC2046FFF714FA00F09CFA16
:1053000090E7000004ED00E02DE9F0471F469046CD
:105310008946040003D0B9F1000F08D011E05020F5
:1053200080F31188BFF34F8FBFF36F8FFEE7206CC0
:1053300038B1502080F31188BFF34F8FBFF36F8FC8
:10534000FEE7022F0AD1E06B012807D0502080F33E
:105350001188BFF34F8FBFF36F8FFEE7FFF75AFC43
:105360005020EFF3118680F31188BFF34F8FBFF306
:105370006F8FA06BE16B884206D3022F04D0002010
:1053800086F31188BDE8F08794F94550A06B3A4642
:1053900049462046FEF70BFF681C04D06D1C84F8BC
:1053A00045500120ECE7606A0028FAD004F124009F
:1053B00000F008FA0028F4D0B8F1000FF1D0012174
:1053C000C8F80010EDE700002DE9F747002683B08C
:1053D0008A46040003D0BAF1000F08D011E0502033
:1053E00080F31188BFF34F8FBFF36F8FFEE7206C00
:1053F00038B1502080F31188BFF34F8FBFF36F8F08
:10540000FEE700F019F9DFF8F4804FF000094FF0E3
:10541000805748B9059838B1502080F31188BFF300
:105420004F8FBFF36F8FFEE7FFF77CFBA56BC5B116
:1054300051462046FEF7A8FE6D1EA563206950B1B7
:1054400004F1100000F0BEF928B1C8F80070BFF3F5
:105450004F8FBFF36F8FFFF785FB012006B0BDE8CC
:10546000F087059808B11EB106E0FFF77BFB27E047
:105470006846FFF7CBFC0126FFF774FBFFF74CFDF6
:10548000FFF750FB94F94400401C01D184F844908C
:1054900094F94500401C01D184F84590FFF762FB68
:1054A00005A9684600F02CF8002820460AD0FFF72E
:1054B00039F900F0C1F92046FEF7C8FF0028B3D043
:1054C0000020CBE7FEF7C2FF90B104F1240005995C
:1054D000FFF7AAFC2046FFF725F900F0ADF90028F8
:1054E000A2D1C8F80070BFF34F8FBFF36F8F9BE757
:1054F0002046FFF717F900F09FF995E704ED00E06B
:105500002DE9F0410C4605000FD0B4B1FFF70AFBBE
:105510001C4BDA686E681868911B002790F85200DF
:1055200098B1186880F852701AE0502080F3118802
:10553000BFF34F8FBFF36F8FFEE7502080F31188CA
:10554000BFF34F8FBFF36F8FFEE72068B0F1FF3FCF
:1055500008D0D5F800C01B6A9C4509D0964207D8F0
:10556000012400E00024FFF7FDFA2046BDE8F081A9
:10557000884205D9401A20602846FFF747FCF1E72A
:105580002760EDE7340000202DE9FF5F8346DDE969
:105590000E87994616468A469000FFF7F9F80500EF
:1055A0001CD05420FFF7F4F8040014D00020256329
:1055B00084F85100CDE90240CDE900874B463246E0
:1055C00051465846FEF7A6FE2046FEF749FD01204B
:1055D00004B0BDE8F09F2846FFF7D8FA4FF0FF303F
:1055E000F6E7F0B585B0DDE90B640A9DA6B1DCB144
:1055F000542700972663022684F85160002604AFE2
:10560000CDE90246CDE90057FEF784FE2046FEF7BD
:1056100027FD049805B0F0BD502080F31188BFF33A
:105620004F8FBFF36F8FFEE7502080F31188BFF3D9
:105630004F8FBFF36F8FFEE70548416919B1006BCB
:1056400018B1002070470120704702207047000009
:10565000340000200148C06870470000340000207A
:105660002DE9F0412F4C0026206B28B1A069401C89
:10567000A0613046BDE8F081E5686D1CE56013D19E
:10568000606B006838B1502080F31188BFF34F8FF2
:10569000BFF36F8FFEE7606BA16B6163A063206A4D
:1056A000401C2062FEF7BEFFA06ADFF87C808542C6
:1056B00009D3606B0068A0B1606BC068C768786888
:1056C000854211D2A0622068C06A00EB800158F8C0
:1056D0002100012800D90126E0690028C9D001264F
:1056E000C7E74FF0FF30EDE7381DFFF7BFF9B86AA5
:1056F00018B107F11800FFF7B9F9F96A012022691A
:1057000088401043206101EB810108EB8100391DC5
:10571000FFF7FCF9F86A2168C96A8842C9D30126F3
:10572000C7E70000340000205009002070B50400D5
:105730004FF0000140D0214D2868844207D050200E
:1057400080F31188BFF34F8FBFF36F8FFEE7A06C1C
:1057500038B1401EA064636CE26A9A422CD040B11A
:105760002AE0502080F31188BFF34F8FBFF36F8F73
:10577000FEE7201DFFF77AF9114A012150B9E06ACE
:1057800000EB800352F8233023B92B6901FA00F0B3
:1057900083432B61606CE062C0F10700A061E06AA6
:1057A0002B6981401943296100EB800002EB8000E6
:1057B000211DFFF7ABF90121084670BD3400002020
:1057C000500900202DE9F041C068C468ACB104F173
:1057D00018000746FFF74AF9154D286B0126A0B1BE
:1057E00039461448FFF792F9E06A2968C96A884285
:1057F0001CD90120EE61BDE8F081502080F31188B2
:10580000BFF34F8FBFF36F8FFEE7201DFFF72EF919
:10581000E16A2A6906FA01F01043286101EB810070
:105820000449B43901EB8000211DDBE70020E2E7E9
:1058300034000020040A00202DE9F0472C4D0024FC
:105840002746286B38B1FFF76DF9286B401E286397
:10585000286B40B146E0502080F31188BFF34F8F92
:10586000BFF36F8FFEE7A968224E0120D1B3A6F1E6
:10587000B40980463068E8B1F068C46804F11800E3
:10588000FFF7F4F8201DFFF7F1F8E06A2A6908FA3B
:1058900000F11143296100EB800109EB8100211D1A
:1058A000FFF734F9E06A2968C96A8842E2D3C5F88B
:1058B0001C80DFE70CB1FEF7B5FEAC6944B146468B
:1058C000FFF7CEFE00B1EE61641EF9D10020A861A1
:1058D000E86938B10849012738070860BFF34F8FDE
:1058E000BFF36F8FFFF73EF93846BDE8F087000041
:1058F00034000020040A002004ED00E010B586B05A
:10590000FEF716FC114C2068B8B1002003900490FB
:1059100005AA04A903A8FFF7C7F8DDE903210220BF
:105920008DE8070000230AA10B48059AFFF759FEEE
:10593000606010B106B0012010BD502080F31188C6
:10594000BFF34F8FBFF36F8FFEE7000070000020A2
:10595000546D722053766300014700082DE9FF4122
:105960001E46134602000A9D4FF0000016D0144C4C
:105970002768002F0FD0CDE900130292062917DA0D
:10598000FFF75AFE02284FF000030FD000226946AD
:105990002068FFF709FC04B0BDE8F081502080F3D7
:1059A0001188BFF34F8FBFF36F8FFEE72A46EEE7F4
:1059B0000023324669463846FFF7A6FCEBE70000B5
:1059C0007000002081F00041704780F00040704777
:1059D00021F00041704720F00040704721F0004264
:1059E000A2F16052B2F5801F01F0004328BFD2F14E
:1059F0007F6C0BD95FEA001C43EAC20242EB507095
:105A000018BF704728BF20F001007047B2F5801F13
:105A1000BCBF184670474FEA410C1CF5001F02D26C
:105A2000084600F0D1BC70B500F00EFB0000008904
:105A3000FFF7F6BF4FF00040A0F580007047000070
:105A400010B591EA030F48BF83F0004300F164836F
:105A5000841A71EB030C05D2121943EB0C03001BE3
:105A600061EB0C01DFF824E14FEA1154A4EB135C65
:105A70001EEA430F18BF9EEA445F73D023EA0E0369
:105A8000DCF1200E21EA045143F4801332D322FAD0
:105A90000CFE10EB0E0023FA0CFE41EB0E01CCF1D4
:105AA000200E03FA0EFE10EB0E0051F10001B1F5CD
:105AB000801FCCF1200E32D201EB045112FA0EF20B
:105AC000BDE8104058BF7047401C38BF5FEA420233
:105AD00018BF7047002814BF20F0010041F10001F9
