:020000040800F2
:1000000000B30020290300087F4A00084539000892
:100010007D4A0008970A0008B56600080000000045
:10002000000000000000000000000000690200085D
:10003000710F000800000000C502000855610008AB
:100040004303000843030008430300084303000878
:100050004303000843030008730F0008430300082C
:1000600043030008790F00087F0F000843030008CE
:10007000150C00084303000843030008430300086D
:100080004303000843030008430300084303000838
:10009000F90A00084303000843030008850F00081D
:1000A0004303000843030008430300084303000818
:1000B0004303000843030008430300084303000808
:1000C00043030008430300084303000843030008F8
:1000D000430300084303000843030008A96600081F
:1000E00043030008430300084303000843030008D8
:1000F00043030008430300084303000843030008C8
:1001000043030008430300084303000843030008B7
:100110004303000843030008256200084303000866
:100120004303000843030008210C000843030008B0
:100130004303000843030008430300084303000887
:100140006D0B000843030008430300084303000845
:100150004303000843030008430300084303000867
:100160004303000843030008430300084303000857
:100170004303000843030008430300080000000095
:10018000430300084303000800F002F800F05CF8A5
:100190000AA090E8000C82448344AAF10107DA45E2
:1001A00001D100F051F8AFF2090EBAE80F0013F0D8
:1001B000010F18BFFB1A43F001031847B89E000057
:1001C000D89E00000A444FF0000C10F8013B13F0D9
:1001D000070408BF10F8014B1D1108BF10F8015BA0
:1001E000641E05D010F8016B641E01F8016BF9D193
:1001F00013F0080F1EBF10F8014BAD1C0C1B09D1EA
:100200006D1E58BF01F801CBFAD505E014F8016B5B
:1002100001F8016B6D1EF9D59142D6D370470000ED
:100220000023002400250026103A28BF78C1FBD8FF
:10023000520728BF30C148BF0B6070471FB509F097
:100240004EFE1FBD10B510BD00F002FA1146FFF7BB
:10025000F5FF07F059FC00F020FA03B4FFF7F2FFB6
:1002600003BC00F023FA00002C4B19680868B0E8C2
:10027000F04F80F30988BFF36F8F4FF0000080F3D9
:10028000118870470000000008480068006880F38B
:1002900008884FF0000080F3148862B661B6BFF39F
:1002A0004F8FBFF36F8F00DF00BF00BF08ED00E08E
:1002B000DFF80C00016841F470010160704700BF75
:1002C00088ED00E0EFF30980BFF36F8F134B1A68DE
:1002D0001EF0100F08BF20ED108A20E9F04F1060CB
:1002E00009B44FF0500080F31188BFF34F8FBFF374
:1002F0006F8F08F0A1FE4FF0000080F3118809BC59
:1003000019680868B0E8F04F1EF0100F08BFB0EC95
:10031000108A80F30988BFF36F8F70473800002080
:10032000EFF30580704700000948804709480047FF
:10033000FEE7FEE7FEE7FEE7FEE7FEE7FEE7FEE795
:10034000FEE7FEE704480549054A064B70470000F2
:1003500015620008890100080073002000B3002026
:10036000009300200093002053EA020C00F0698003
:100370002DE9F04B4FF00006002B1FBFB3FA83F5B9
:1003800003FA05F424FA05F65E4012BF1643B2FAEA
:1003900082F502FA05F4C5F120051EBF22FA05FC1C
:1003A00044EA0C04203556EA044C4FEA144418BFC2
:1003B000641C4FF000084FF00009904271EB030CF1
:1003C00039D3002919BFB1FA81F701FA07F6B0FA5B
:1003D00080F700FA07F6C7F120071EBF20FA07FCD6
:1003E00046EA0C062037B6FBF4FCA7EB0507103FE6
:1003F00007F01F0BCBF120060CFA0BFB2CFA06F6CC
:1004000044BFB3460026202FA4BF5E464FF0000B2A
:100410005BEA060C08BF4FF0010B19EB0B09ABFBB5
:10042000027C48EB0608C01B06FB02CC0BFB03CC8E
:1004300071EB0C01C1E70B46024641464846BDE858
:10044000F08B13B54FF000004FF00001AFF30080C8
:10045000BDE81C40704710B5431C02E010F8011BBA
:1004600071B18107FAD14FF0013202C88C1A8C4366
:1004700014EAC211F9D0C01A0A0603D0C01E10BD7A
:10048000C01A10BD0A0401D0801E10BD0902FCD0A4
:10049000401E10BD032A40F2308010F0030C00F023
:1004A000158011F8013BBCF1020F624498BF11F8AE
:1004B00001CB00F8013B38BF11F8013BA2F1040267
:1004C00098BF00F801CB38BF00F8013B11F00303DF
:1004D00000F02580083AC0F0088051F8043B083A43
:1004E00051F804CBA0E80810F5E7121D5CBF51F8E5
:1004F000043B40F8043BAFF30080D20724BF11F85F
:10050000013B11F801CB48BF11F8012B24BF00F8C3
:10051000013B00F801CB48BF00F8012B704710B534
:10052000203AC0F00B80B1E81850203AA0E81850EB
:10053000B1E81850A0E81850BFF4F5AF5FEA027CAC
:1005400024BFB1E81850A0E8185044BF18C918C01B
:10055000BDE810405FEA827C24BF51F8043B40F8BC
:10056000043B08BF7047D20728BF31F8023B48BFA1
:1005700011F8012B28BF20F8023B48BF00F8012BDF
:10058000704702F0FF0343EA032242EA024200F00E
:1005900037B84FF0000200B513469446964620390E
:1005A00022BFA0E80C50A0E80C50B1F12001BFF42C
:1005B000F7AF090728BFA0E80C5048BF0CC05DF892
:1005C00004EB890028BF40F8042B08BF704748BFE0
:1005D00020F8022B11F0804F18BF00F8012B704754
:1005E00070477047704710B500F02AF8006810BDDA
:1005F00010B5044600F024F8046010BD4FF000026E
:100600000429C0F0128010F0030C3FF4C4AFCCF109
:10061000040CBCF1020F18BF00F8012BA8BF20F892
:10062000022BA1EB0C01FFF7B6BF5FEAC17C24BF30
:1006300000F8012B00F8012B48BF00F8012B704790
:10064000004870479C720020004870479C72002050
:100650007546FFF7F9FFAE4605006946534620F0A0
:100660000700854618B020B5FFF76CFEBDE82040B6
:100670004FF000064FF000074FF000084FF0000B5E
:1006800021F00701AC46ACE8C009ACE8C009ACE811
:10069000C009ACE8C0098D46704710B50446AFF3F9
:1006A00000802046BDE81040FFF7D7BD0149182063
:1006B000ABBEFEE72600020070470000B7EE000A5E
:1006C00080ED000A9FED040A80ED010A80ED020A28
:1006D00080ED030A704700000000000093EC033A2D
:1006E000D2EC031A91EC030A03F02CBF10B508F00A
:1006F00021FA06F027FE06F081FD00F03DFA00F039
:1007000059FA0A480068416941F00201416108480C
:100710000068416941F00201416107F017FA08F0F1
:1007200029FABDE81040002008F048BBB0080020BE
:10073000D808002001221021014801F0FCBC000073
:100740000000024000221021014801F0F4BC00002A
:1007500000000240704707F077BA06F007BE704706
:1007600001221146014801F0E6BC000000040240ED
:1007700000220121014801F0DEBC0000000402401B
:1007800010B5FFF7ECFFFFF7E5FF06F07FFA08B1C1
:10079000802402E006F0F2F9044606F02FFC10B1C6
:1007A00044F0400010BD06F0BBFB204310BD00002C
:1007B0002DE9FC410746002016460D4600900190A9
:1007C000FFF7C0FF922000F0C1F806226946122010
:1007D00000F09EF8FFF7AEFF9DF801009DF80010B5
:1007E000000200B2084300EE100A484CB8EEC00AFE
:1007F000D4ED020A20EE200A85ED000A20809DF843
:1008000003009DF80210000200B2084300EE100A37
:10081000D4ED020AB8EEC00A20EE200A85ED010AE6
:1008200060809DF805009DF80410000200B20843A6
:1008300000EE100AB8EEC00A20EE200A85ED020A8A
:10084000A080FFF795FF08226946002000F060F8BD
:10085000FFF786FF9DF800000F2830D19DF80300B8
:100860009DF80210000200B2084300EE100AD4ED19
:10087000030AB8EEC00A20EE200A87ED000A9DF8B0
:1008800005009DF80410000200B2084300EE100AB3
:10089000D4ED030AB8EEC00A20EE200A87ED010A63
:1008A0009DF807009DF80610000200B2084300EE14
:1008B000100AB8EEC00A20EE200A87ED020AFFF700
:1008C00041FFA22000F042F802226946222000F0F7
:1008D0001FF8FFF72FFF9DF800009DF80110C000E2
:1008E00040EA5110B0F5806F01DBA0F5006000EE2A
:1008F000100AB4EE001AF8EEC00AB3EE070A00EED2
:10090000810A86ED000ABDE8FC8100000C01002090
:1009100070B514460D4640F0800000F017F806E070
:10092000552000F013F8641E05F8010BE4B2002C0A
:10093000F6D170BD10B50C4640F0800000F006F80E
:10094000552000F003F8207010BD000001B582B002
:100950004FF47A700090012301AA02A9024802F024
:10096000FFFA9DF804000EBD5409002010B50C4696
:10097000FFF7ECFF2046BDE81040FFF7E7BF00009F
:1009800030B5437804781B021BB2234300EE103AC3
:100990001B4CB8EEC00AD4ED020A20EE200A81ED0D
:1009A000000AC37885781B021BB22B4300EE103A75
:1009B000D4ED020AB8EEC00A20EE200A81ED010A49
:1009C000437904791B021BB2234300EE103AB8EEC0
:1009D000C00A20EE200ADFED0B0A81ED020A017A3F
:1009E000C3790904807941EA0321014300EE101A1A
:1009F000B8EE400A20EE200A82ED000A30BD000069
:100A00000C01002000401C4210B54278037812020D
:100A100012B21A4300EE102A124BB8EEC00AD3ED00
:100A2000030A20EE200A81ED000AC27884781202BF
:100A300012B2224300EE102AD3ED030AB8EEC00A28
:100A400020EE200A81ED010A42790079120212B2E9
:100A5000024300EE102AB8EEC00A20EE200A81ED13
:100A6000020A10BD0C01002002784078D20042EA50
:100A70005010B0F5806F01DBA0F5006000EE100AA9
:100A8000B4EE001AF8EEC00AB3EE070A00EE810ACF
:100A900081ED000A7047FEE78EB0164D4FF0FF392A
:100AA00040F2052640F275170DF124084A4605A9C3
:100AB000286808F011FD059CB4420CD1142241466F
:100AC0006846FFF72CFD0DF1180C20469CE80E003F
:100AD00003F0E0FAEAE7BC42E8D114224146684656
:100AE000FFF71DFD0DF1180C20469CE80E0006F0E6
:100AF00057FCDBE70C000020014800F02CBD000093
:100B0000B00800208EB0184D40F206264FF0FF3A94
:100B1000771C4FF402780DF12409524605A9286884
:100B200008F0DAFC059CB4420CD114224946684610
:100B3000FFF7F5FC0DF1180C20469CE80E0003F0C1
:100B40008FFAEAE7BC4201D24445E6D8142249466E
:100B50006846FFF7E4FC0DF1180C20469CE80E00F7
:100B600003F060FAD9E7000010000020014800F00F
:100B7000F2BC0000D808002000B58BB00020012195
:100B8000CDE9060105900090019002900390049039
:100B90000E20CDE908106946054800F0E1FB044845
:100BA00000F018FF0221024800F05AFB0BB000BD14
:100BB000B008002000B58BB00E2005900020012168
:100BC000CDE90601039000900190029008910490F5
:100BD0006946064800F0C4FB044800F0FBFE022111
:100BE000024800F03DFB0BB000BD0000D80800201B
:100BF0008900FFF7CEBC401AB0F5805F03DDA0F599
:100C0000F850FF38704710F5805FFBDA41F6FF714E
:100C100008447047014800F06BBF00003C0B002007
:100C20002DE9F05FAB48AC4BAC4CC06CAA4DAB4E61
:100C3000A94F0068A849DFF8A492DFF89CA2DFF86A
:100C40009CB2DFF894E2A54A483B60341835183668
:100C5000303F09F178090AF1300A4FF4006C0BF1CA
:100C6000300BAEF1180E884223D99B49543926E047
:100C7000A84233D14FF020080AE0504535D1E04674
:100C800006E000BF4FF4001802E000BF4FF000681C
:100C900011EA080F7CD09049884253D9904205D080
:100CA000984203D0A04201D0A8422FD14FF0200C8F
:100CB00045E08A49A831884203D9874958390968EB
:100CC00005E08649483188428549F8D9496890420B
:100CD000D0D09842CED0A042CCD0C9E7B042CED03E
:100CE000B842CCD04845CAD0C7E75845CAD07045AD
:100CF000C8D0DFF8E88108F190084045C2D0DFF89D
:100D0000D88108F148084045C0D1BBE7B04216D0B1
:100D1000B84214D0484512D0504510D0584509D09B
:100D2000704507D06D499031884203D06A494831F7
:100D3000884202D14FF4001C01E04FF0006C66487D
:100D40004C382AE06549A831884229D9904205D01B
:100D5000984203D0A04201D0A84202D14FF0200C0B
:100D600019E0B04217D0B84215D0484513D05045CD
:100D700011D0584509D0704507D058499031884264
:100D800003D055494831884203D14FF4001C02E09A
:100D90009DE04FF0006C50485038C0F800C052E061
:100DA0004E494831884227D9904205D0984203D015
:100DB000A04201D0A84202D14FF0200C18E0B0426E
:100DC00016D0B84214D0484512D0504510D05845DE
:100DD00009D0704507D041499031884203D03E493F
:100DE0004831884202D14FF4001C01E04FF0006C02
:100DF0003B48C0F80CC026E0904205D0984203D092
:100E0000A04201D0A84202D14FF0200C18E0B0421D
:100E100016D0B84214D0484512D0504510D058458D
:100E200009D0704507D02D499031884203D02A4916
:100E30004831884202D14FF4001C01E04FF0006CB1
:100E40002748C0F808C0274C207880070CD52078A8
:100E500020F002002070207840F004002070012271
:100E60001146214801F067F96078204D80070CD5C4
:100E7000607820F002006070607840F004006070DC
:100E800001221021284601F056F9A07880070CD5E0
:100E9000A07820F00200A070A07840F00400A070BC
:100EA00001221021284601F046F906F0D1FC2078F5
:100EB00040070CD5207820F004002070207840F006
:100EC000080020700A48016841F001010160BDE896
:100ED000F09F000054090020586402401060024056
:100EE000006002406801002000040240000002404F
:100EF000103C014001681823CAB2103AB2FBF3F269
:100F0000054B6FF30901032A9B5CC36500D9091DDA
:100F10008165084670470000D89F000810B501465B
:100F200000208B698A6A4FF0C07453B1B3F5005F3B
:100F300015D072B1012A0CD0022A0AD0032A09D195
:100F400004E01AB1012A06D0022A03D1C96AC901F4
:100F500000D5012010BDC96AA142FAD010BD002AF7
:100F6000F7D0012AF2D0022AF3D0032AF3D010BD21
:100F70007047012000F0D6BF082000F0D3BF10203A
:100F800000F0D0BF202000F0CDBF72B6FEE7000019
:100F90002549DFED270A9FED251AD1ED001AB0EEA5
:100FA000600A244801EE810A80ED000A91ED022AD0
:100FB000214942EE410AC0ED010AD1ED020A60EE7C
:100FC000810AC0ED080AD1ED000A1C4920EE811A01
:100FD00080ED091AC1ED001A0831C1ED010AD0ED0A
:100FE000020A174930EE601A11EE102A8A4202D91D
:100FF0000269521C026170EEC00A10EE902A8A4209
:1010000002D90169491E0161D0ED040ADFED0D1A14
:10101000B8EEE01AF0EE400A41EE210AC0ED060AF1
:1010200080ED020A70470000D0710020E02E65427A
:101030000000344344700020DC7100204001002097
:10104000000096C30000B443002229B101291AD040
:1010500002291BD04FF440720E490B6823F44073F1
:101060000B600B6813430B600A6822F0F8020A60F9
:101070000A68022303EBC00002430A60086840F4D8
:101080008030086070474FF48072E5E74FF40072DB
:10109000E2E70000103C02401348016889050FD5C3
:1010A000016821F400710160016841F40061016090
:1010B000016821F400610160016841F40071016080
:1010C000016849050FD5016821F48061016001685C
:1010D00041F480510160016821F480510160016890
:1010E00041F4806101607047003C024008490A6891
:1010F00022F440720A600A6842F004020A600A6838
:101100004FF4803343EA002002430A607047000036
:10111000103C0240064A136823F4407313601368BE
:101120001360136843F001031360017070470000FF
:10113000103C0240094910B50C6824F440740C605E
:101140000C6844F440740C600C6844F001040C60BA
:101150000260BFF36F8F436010BD0000103C02407F
:10116000074A136823F440731360136843F48073D1
:101170001360136843F0010313600180704700009F
:10118000103C0240074A136823F44073136013684D
:1011900043F400731360136843F0010313600160AC
:1011A00070470000103C024017490868C206174803
:1011B00005D5C26942F01002C26110220A600A68B5
:1011C000920605D5C26942F00802C26120220A6077
:1011D0000A68520605D5C26942F00402C261402283
:1011E0000A600A68120605D5C26942F00202C261AD
:1011F00080220A600A68920705D5C26942F020027F
:10120000C2610220086070470C3C0240E40B0020E1
:1012100070B5114904460020C86100F091FF0646F0
:101220000E4D09E0601C07D024B100F089FF801B3F
:10123000A04201D9032070BD2868C003F2D42868F9
:10124000C00701D001202860286810F0F200F2D019
:10125000FFF7AAFF012070BDE40B00200C3C024008
:1012600090F82020012A07D0022A05D0416A41F4D3
:101270008021416201207047006842690A4342614F
:1012800000207047F0B590F820500468A468012D44
:1012900005D0022D03D0416A41F480215DE014F0B5
:1012A000406F01D1E50055D5C4F30164022C03D988
:1012B000416A41F4000150E00125A5401D608D68A0
:1012C0004FF4C0739DB1CE6835434E6845EAC605FC
:1012D000066803EB0417F5514FF4C275076805EB78
:1012E00004150E697E51097D012905D009E00E889B
:1012F000CD6845EA4655EBE701684E5946F48076DD
:101300004E511179D579567941EA056195792D04C7
:1013100045EA062529434FF4C676056806EB041610
:10132000A9511178D57841EA0561957852782D0454
:1013300045EA022211434FF4C475026805EB041517
:101340005151006803EB0411425842F0010242502F
:101350000020F0BD416A41F4001141620120F0BD5E
:1013600010B590F82020012A07D0022A05D0416A42
:1013700041F480214162012010BD3B48D0F8002299
:1013800042F00102C0F80022D0F8002222F47C5280
:10139000C0F80022D0F800224B6A42EA0322C0F8CB
:1013A00000220A7D02F01F0301229A40D0F81C326D
:1013B0009343C0F81C32CB69B3B9D0F80C329343D5
:1013C000C0F80C328C894B6864F31F434C6900EB06
:1013D000C404C4F840320C890B6864F31F434C69A1
:1013E00000EBC404C4F84432CB69012B16D1D0F809
:1013F0000C321343C0F80C320C884B6864F31F4363
:101400004C6900EBC404C4F840320C89CB6864F327
:101410001F434C6900EBC404C4F844328B69002BB1
:10142000D0F804320ED01343C0F804320B69002BFD
:10143000D0F8143208D01343C0F81432096A0129D5
:1014400004D008E09343EFE79343F5E7D0F81C128C
:101450001143C0F81C12D0F8001221F00101C0F8AD
:101460000012002010BD000000640040704730B53D
:1014700090F82040012C05D0022C03D0416A41F4A1
:1014800080215DE00468002955D02469A40754D068
:101490004FF4D874056804EB01142D5915F00405B8
:1014A000956005682D594ED0ED08556005682C599A
:1014B00004F00204D4604FF4DA74056804EB0114FC
:1014C0002D5905F00F05156105682D59C5F3072540
:1014D000956105682C59240C54614FF4DC72046842
:1014E00002EB0112A4581C700468A458240A5C7012
:1014F0000468A458240C9C700468A258120EDA7078
:101500004FF4DE72046802EB0112A4581C710468E7
:10151000A458240A5C710468A458240C9C710468C3
:10152000A258120EDA71006881B1016941F0200100
:101530000161002030BDE468A8E7416A41F4001170
:101540004162012030BD6D0D1560AFE7C16841F00B
:101550002001C160EDE72DE9F05F05460068002439
:101560004669D0F804908768D0F80CB0D0F810A085
:10157000D0F81880F10748D0F90714D00121816014
:10158000B80703D5284600F052FA0CE0780702D5D8
:101590004FF4006407E0380702D54FF4805402E0AE
:1015A000284600F043FAF80516D529684FF48070F4
:1015B0008860B80503D5284600F03BFA0CE07805B2
:1015C00002D544F4005407E0380502D544F48044C1
:1015D00002E0284600F02CFAF80316D529684FF4EB
:1015E00080308860B80303D5284600F024FA0CE068
:1015F000780302D544F4004407E0380302D544F4EC
:10160000803402E0284600F015FA300707D55FEA7B
:10161000CB6004D52968102044F40074C8607007BA
:101620004FF0080707D55FEA0B7004D52868C7603C
:10163000284600F099F9B00706D52868C0688007E9
:1016400002D0284600F092F9700607D55FEACA601A
:1016500004D52968102044F480640861B00607D5D9
:101660005FEA0A7004D528680761284600F0AEF9E1
:10167000F00606D528680069800702D0284600F0E9
:10168000A6F9B00308D55FEAC96005D5296810201E
:101690004860284600F09CF9F00307D55FEA09701E
:1016A00004D528684760284600F0C6F9300446D5BE
:1016B0005FEA497040D5F00504D55FEAC87001D0F3
:1016C00044F00104B00504D55FEA887001D544F008
:1016D0000204700504D55FEA487001D544F00404A3
:1016E000300529D518F0700F26D008F0700040287A
:1016F00015D006DC102809D020280AD0302816D1B1
:101700000AE050280ED0602811D10EE044F0080401
:101710000DE044F010040AE044F0200407E044F037
:10172000400404E044F0800401E044F4807428683C
:10173000816921F070018161296804204860002CD2
:1017400005D0686A204368622846FFF78FFEBDE82F
:10175000F09F70B5040003D094F8200010B104E0AD
:10176000012070BD204600F081F82068016841F03A
:101770000101016000F0E4FC0546052604E000F0EC
:10178000DFFC401B0A2811D820684068C007F6D04B
:101790002068016821F00201016000F0D1FC0546DB
:1017A0000BE000F0CDFC401B0A2806D9606A40F42B
:1017B0000030606284F82060D2E7206840688007CB
:1017C000EFD4207E0128206801683DD021F08001FF
:1017D0000160607E01282068016838D021F0400156
:1017E0000160A07E01282068016833D021F020012B
:1017F0000160E07E0128206801682ED041F01001D0
:101800000160207F01282068016829D021F00801AB
:101810000160607F01282068016824D021F0040164
:101820000160D4E902010843D4E9041211430843DA
:101830006168491E08432168C86100206062012078
:1018400084F82000002070BD41F08001C0E741F025
:101850004001C5E741F02001CAE721F01001CFE7C0
:1018600041F00801D4E741F00401D9E7F0B587B0B1
:10187000044614216846FEF78CFE364B3648DFF8E6
:10188000D0E01968D4F800C0334A0325022609279E
:1018900010300024491CF44522D11960012907D1D8
:1018A000016841F000710160006800F0007005906F
:1018B000106840F0080010601068CDE9005600F094
:1018C0000800CDE9047069462448CDE9024500F0DE
:1018D00035FB00220521142000F072FF142032E0B5
:1018E000DFF87CE0F44530D1D0F800C04CF0806CDB
:1018F000C0F800C0D0F800C001290CF0806CCDF811
:1019000014C0196007D1016841F0007101600068DE
:1019100000F000700590106840F002001060106840
:1019200002AB00F0020005906020CDE9000683E8DC
:10193000B00069460B4800F001FB00220521402061
:1019400000F03EFF402000F02DFF07B0F0BD00008A
:10195000006400402400002030380240000C0240A7
:1019600000680040000402407047000010B5124AB1
:10197000016891420BD1114B0021A3F11C02FFF72A
:1019800076FD00230D491A461C390D480EE00D4A1C
:10199000914210D1094B00212433A3F11C02FFF71F
:1019A00066FD0023054908481A4608310068BDE86D
:1019B000104007F031BD10BD00640040606E002093
:1019C0000C000020006800401000002070477047A5
:1019D0007047000070B5044690F82000012804D03C
:1019E000606A40F40020606218E0022084F8200061
:1019F0002068016821F00101016000F0A1FB0546AB
:101A00000EE000BF00F09CFB401B0A2808D9606A6A
:101A100040F400306062052084F82000012070BD91
:101A200020684068C007EDD1606270BD70477047A4
:101A3000704770477047704770472DE9F041044682
:101A4000876D00F07DFB064694F8350000250228DE
:101A500006D08020606584F834500120BDE8F08114
:101A60002068016821F0160101602068416921F0B9
:101A700080014161206C08B9A06C20B12068016828
:101A800021F0080101602068016821F00101016076
:101A90000CE000F055FB801B052807D9202060656D
:101AA000032084F8350084F83450D7E720680068B4
:101AB000C007EED194F85C103F208840B860012048
:101AC00084F8350084F834500020C7E790F83510CA
:101AD000022903D08021416501207047052180F84B
:101AE00035100068016821F0010101600020704795
:101AF0002DE9F84304464FF00009CDF80090634803
:101B00004FF41651A56D0068B0FBF1F72E6894F8FC
:101B10005C10082000FA01F131420FD021680A68F8
:101B200052070BD50A6822F004020A6094F85C1090
:101B30008840A860606D40F00100606594F85C101A
:101B40004FF0010808FA01F0304208D021684969D5
:101B5000090604D5A860606D40F00200606594F845
:101B60005C1004208840304208D021680968890749
:101B700004D5A860606D40F00400606594F85C10C6
:101B800010208840304218D021680968090714D510
:101B9000A86020680168490304D50068000308D5DF
:101BA000A16C07E00168C90503D4016821F00801B0
:101BB0000160216C09B12046884794F85C10202010
:101BC0008840304231D021680968C9062DD5A86007
:101BD00094F8350005282068016806D0490347D5E8
:101BE000006800031DD4616C1CE021F01601016047
:101BF0002068416921F080014161206C08B9A06C26
:101C000020B12068016821F00801016094F85C109F
:101C10003F208840A86084F8358084F83490216D96
:101C20001FE0E16B09B120468847606D00282BD08A
:101C3000606DC00714D0052084F835002068016865
:101C400021F0010101600098401C0090B84203D8C7
:101C500020680068C007F6D184F8358084F8349095
:101C6000E16C002910D001B02046BDE8F0430847E0
:101C70000168C905D5D4016821F01001016084F81C
:101C8000358084F83490CCE7BDE8F8833400002038
:101C90002DE9F041044600F053FA06465CB10220FB
:101CA00084F83500002584F834502068016821F05C
:101CB000010101600DE00120BDE8F08100F040FA73
:101CC000801B052805D920206065032084F8350095
:101CD000F2E720680068C007F0D122681168204848
:101CE0000140D4E901031843D4E9033633431843D0
:101CF00063691843A3691843E3691843236A1843C7
:101D00000843616A042903D1D4E90B13194308433A
:101D1000106020684069666A20F0070130460E4373
:101D2000012704280CD1A06A0643E06A40B120468E
:101D3000FFF7F4F820B14020606584F83570BAE709
:101D4000206846612046FFF7D5F894F85C203F21D3
:101D500091408160656584F835700020ACE7000033
:101D60003F8010F02DE9F047044622480F46017EDF
:101D700001290AD00121804601764CF250394846AB
:101D8000FFF746FA020003D02FE00220BDE8F087FB
:101D90004FF0FF3038602068174D012801D0A66849
:101DA0001CE0207C6168FFF7A1F94846FFF730FA94
:101DB0000246286820F00400286014E0217C3046A8
:101DC000FFF742F94846FFF723FA0200286820F09F
:101DD000FA00286001D03E6005E0761CD4E90210CC
:101DE0000844B042EAD8FFF757F9002188F81810E4
:101DF0001046CBE7E40B0020103C0240034801688A
:101E000041F000410160002070470000103C02409A
:101E10002DE9F0471B4E05461446307E1F46894685
:101E2000012808D0012030764CF250384046FFF7A8
:101E3000EFF918B114E00220BDE8F0879DB1012D43
:101E400016D0022D19D022463B464846FFF772F9BC
:101E50004046FFF7DDF90C490A6822F001020A60EA
:101E600000213176E8E7E1B24846FFF753F9EFE7A2
:101E7000A1B24846FFF774F9EAE721464846FFF762
:101E800081F9E5E7E40B0020103C024007490020FF
:101E90000A68002A09DA054A054B0C3A1360054B1B
:101EA00013600968002900DA01207047103C0240E5
:101EB00023016745AB89EFCD10B5184C102818D019
:101EC00020281FD0012813D107F080FC01280FD053
:101ED00004F10C01206906F0D5FFE068002807D066
:101EE0000F494FF080500860BFF34F8FBFF36F8FE3
:101EF00010BD607840F001006070A07840F00100F3
:101F0000A07003E0207840F00100207020790028C4
:101F1000EED0BDE8104005F09BBC00006801002039
:101F200004ED00E0044910B50A68024202D00860DE
:101F3000FFF7C2FF10BD0000143C01402DE9F84F2F
:101F4000DFF8BCA10022012503264FF00F090AF19A
:101F5000040BAAF1040E00BF0B6805FA02F423403B
:101F6000A34270D10F7907F00307012F01D0022F90
:101F700016D187684FEA420806FA08FC27EA0C07E0
:101F8000D1F80CC00CFA08FC4CEA070CC0F808C0E9
:101F90004768A7430C79C4F3001494403C43446061
:101FA0000C79E443A4070AD0C4684FEA420C06FA4D
:101FB0000CF7BC438F6807FA0CF72743C7600C790E
:101FC00004F00304022C12D1D40800EB840CDCF8DA
:101FD00020405707FF0E09FA07F824EA0804D1F851
:101FE000108008FA07F848EA0408CCF82080046852
:101FF0004FEA420C06FA0CF7BC430F7907F00307CF
:1020000007FA0CF7274307604C6814F4403F70D080
:102010003C4C276847F480472760246822F0030778
:1020200004F480440094384C07EB040CDCF80848B6
:1020300097074FEA177809FA08F7BC43334FB842BD
:1020400002D1002724E054E0314FB84201D10127EA
:102050001EE0304FB84201D1022719E02E4FB8429E
:1020600001D1032714E02D4FB84201D104270FE01E
:102070002B4FB84201D105270AE02A4FB84201D1BF
:10208000062705E0284FB84201D1072700E00827BE
:1020900007FA08F72743CCF80878DAF800405746E3
:1020A000D1F804C09C435FEACC2C00D51C433C60B3
:1020B000DBF800405F46D1F804C09C435FEA8C2CFB
:1020C00000D51C433C60DEF800407746D1F804C0E0
:1020D0009C435FEA8C3C00D51C433C60084F083FA2
:1020E0003C68D1F804C09C435FEACC3C00D51C435B
:1020F0003C60521C102AFFF42FAFBDE8F88F00009F
:10210000083C0140443802400030014000000240D9
:102110000004024000080240000C0240001002408F
:102120000014024000180240001C024000690840F0
:1021300000D0012070470AB1816170470904FBE7B4
:1021400001488068704700002800002070B5040036
:1021500025D094F83D00002520B984F83C50204655
:1021600000F04CFA242084F83D002068016821F03A
:10217000010101602068016841F4004101602068AC
:10218000016821F40041016000F006FC4D4A6168DD
:10219000914201D84C4900E04C49884201D20120CB
:1021A00070BD4B492368B0FBF1F15E6826F03F0635
:1021B0000E435E606368934206D94FF496735943A9
:1021C0004FF47A73B1FBF3F12368491C1E6A26F0C1
:1021D0003F06314319626168914210D84900401EA0
:1021E000B0FBF1F2521CC2F30B02042A01D204200C
:1021F00022E0B0FBF1F0401CC0F30B001CE0A26831
:10220000F2B301EBC10303EB0116431EB3FBF6F37C
:102210005B1C43F480431B0549D092B301EBC10220
:1022200002EB0111401EB0FBF1F0401CC0F30B00AB
:1022300040F4804040F400402168CA694CF6FF73C6
:102240009A431043C861D4E907100143206802682B
:1022500022F0C00211430160D4E903010143206868
:10226000826848F2FF339A4311438160D4E9050143
:1022700008432168CA6822F0FF021043C86001E0E9
:102280000EE016E02068016841F00101016025645C
:10229000202084F83D00256384F83E50002070BD66
:1022A00001EB4106431EB3FBF6F35B1CB3E70120D1
:1022B000C2E701EB4101401EB0FBF1F0401CC0F34E
:1022C0000B00B7E7A086010080841E0000093D00D6
:1022D00040420F002DE9FF4F83B09A46DDE9119788
:1022E00093460446DDF84080FFF72AFF054694F840
:1022F0003D00202870D11923012271492046009504
:1023000001F030FC0028F5D194F83C00012863D09E
:10231000012084F83C0020680168C90703D10168E6
:1023200041F0010101602068016821F40061016051
:10233000222084F83D00402084F83E0000262664D8
:10234000C4F82480A4F82A90608D20855D48E0625E
:10235000CDE9007553465A462046049901F00AFB20
:1023600000287CD1208DD0B1012821D002282068FE
:1023700024D0416980690090208D032869D8012804
:102380002BD0514902283B464FF00002009559D00E
:102390008846204601F0E6FB002860D13CE020683A
:1023A000416981690091016841F40071016077E041
:1023B0002068016821F480610160F0E7016821F480
:1023C000806101602068016841F40061016020685B
:1023D00041698069009063E06FE02A4639462046F3
:1023E00001F03FFC98BB20680069616A08704EE00C
:1023F0002068016841F40071016020680069616A29
:102400000870606A401C6062218D491E2185618DC3
:10241000491E6185216838E02068016821F48061E7
:10242000016020680069616A0870606A401C60622F
:10243000208D401E2085608D401E60853B46002219
:1024400041460095204601F08DFB00B9D0E706E03B
:10245000FFE72A463946204601F003FC18B1012067
:1024600007B0BDE8F08F20680069616A0870606A93
:10247000401C6062218D491E2185618D491E618548
:1024800021684A69D24352070AD409690170606A17
:10249000401C6062208D401E2085608D401E60853E
:1024A000208D00287FF468AF202084F83D0084F858
:1024B0003E6084F83C600020D2E70220D0E70000B4
:1024C000020010000000FFFF040001002DE9FF4F93
:1024D00083B09A46DDE9119793460446DDF84080C3
:1024E000FFF72EFE054694F83D0020287FD11923E2
:1024F000012240492046009501F034FB002876D1A6
:1025000094F83C00012872D0012084F83C00206837
:102510000168C90703D1016841F001010160206829
:10252000016821F400610160212084F83D00402011
:1025300084F83E0000262664C4F82480A4F82A907B
:10254000608D20852C48E062CDE9007553465A46DF
:102550002046049901F08CFA70B930E02A463946D9
:10256000204601F0B1FB58B1206C042804D120684A
:10257000016841F400710160012007B0BDE8F08FEF
:10258000606A216800780861606A401C6062218D81
:10259000491E89B22185628D521E62852268536967
:1025A000DB435B070BD469B100781061606A401CA3
:1025B0006062208D401E2085608D401E6085208DCC
:1025C0000028CBD12A463946204601F0A5FA00283A
:1025D000CAD154F83D0B016841F40071016020201C
:1025E00004F81E09E67766770020C6E7FFE70220B9
:1025F000C3E70000020010000000FFFFF0B587B045
:10260000044614216846FDF7C4FF1D49206888422E
:1026100033D11C480024016841F0040101600168C5
:1026200001F004010591016841F0010101600068B9
:10263000122500F0010005904FF40070CDE900056F
:1026400002AA0326042782E8D00069460E48FFF755
:1026500075FCB801CDE9000502AA694682E8D00000
:102660000A48FFF76BFC07481030016841F400018D
:102670000160006800F40000059007B0F0BD0000A4
:10268000005C004030380240000802400000024078
:102690000248816802781144816070472800002058
:1026A0000B4810B5016841F400710160016841F404
:1026B00080610160016841F480710160032000F0D5
:1026C0009FF80F2000F006F800F050F8002010BD31
:1026D000003C024030B505461F4887B00024016821
:1026E00041F010010160006806A900F010000090A0
:1026F00001A800F031F90498A8B100F04DF94000AC
:102700001649174AB0FBF1F11648491E026040F223
:10271000E732C0E90324C0E90114846100F013FD2D
:10272000040003D015E000F037F9E9E70D4800F0A8
:102730004BFD04000DD1362000F034F8102D07D2E7
:1027400000222946362000F03BF80748056000E0EB
:10275000012407B0204630BD4038024040420F00FF
:10276000001000409C0B00202C0000200C4882B080
:10277000016841F480410160006800F480400090ED
:102780000748001F016841F0805101600068002285
:1027900000F0805000900F21901E02B000F010B8A1
:1027A00044380240002809DB00F01F02012191405B
:1027B0004009800000F1E020C0F8001170470000DF
:1027C000F0B40E4B1B680C46C3F30223C3F107059C
:1027D000042D00D90425191D072901D2002300E08A
:1027E000DB1E012606FA05F1491E214099409E4054
:1027F000761E16403143F0BC03F070BF0CED00E0D4
:10280000064900F0070208684FF6FF03184040EA47
:102810000220034A10430860704700000CED00E0FE
:102820000000FA052DE9F0470E46050065D0DFF8F7
:102830001481D8F80000F7B200F00700B04207D2C8
:1028400088F80070D8F8000000F00700B04254D1BA
:1028500028683D4C810712D5400703D5206840F415
:10286000E05020602878000703D5206840F46040DD
:1028700020602068A96820F0F000084320602878D4
:10288000C0072DD0304968680839012812D00228C5
:1028900013D0032811D00968890700292DDA21688F
:1028A00021F0030101432160FFF74AFC814641F218
:1028B000883A0EE009688903EFE709688901ECE7C7
:1028C000FFF73EFCA0EB0901514502D90320BDE80A
:1028D000F0872068696800F00C00B0EB810FEFD141
:1028E000D8F80010404601F00701B14207D907703F
:1028F000006800F00700B04201D00120E7E7287827
:10290000400705D52068E96820F4E05008432060BE
:102910002878000706D52068296920F4604040EA3D
:10292000C100206000F058F82168084AC1F3031183
:10293000515CC8400649086006480068FFF7CAFEB7
:102940000020C4E7003C024008380240E09F000835
:10295000340000202C0000200F2202600C4A136873
:1029600003F003034360136803F0F003836013680C
:1029700003F4E053C36012684FF4E05303EAD20259
:1029800002610448006800F007000860704700001A
:1029900008380240003C02400448054900680968C4
:1029A000044AC1F38221515CC840704734000020C2
:1029B00008380240F09F000804480549006809688B
:1029C000044AC1F34231515CC840704734000020D2
:1029D00008380240F09F0008154810B5006810F054
:1029E0000C02144813D01449042A0FD0082A0ED11F
:1029F0000F4C241F2268236802F03F025B0207D5B8
:102A00002068C0F38810A0FB010106E0084610BD55
:102A10002168C1F38811A1FB00010023FDF7A4FC8C
:102A20002168C1F30141491C4900B0FBF1F010BD20
:102A3000083802400024F400001BB7002DE9F84FCD
:102A400004006ED02078DFF84C93C007A9F104058C
:102A50004AD009F104000168C1F38101012908D0BD
:102A60000068C0F3810002280AD1D9F800004002B2
:102A700006D52868800337D560680028E1D033E0A8
:102A80006068B0F5803F10D0B0F5A02F286810D056
:102A900020F480302860286820F480202860606856
:102AA000A8B1FFF74DFB06460DE0286840F48030E2
:102AB000F4E740F480202860F7E700BFFFF740FB11
:102AC000801B642873D828688003F7D50CE0FFF7D3
:102AD00037FB064605E000BFFFF732FB801B64288A
:102AE000F0D828688003F7D42078DFF8AC8280071C
:102AF0004FF0000A3ED5A748001D016811F00C0FE9
:102B000008D00068C0F3810002280BD1D9F800007A
:102B1000400207D42868800716D5E068012800D154
:102B200012E033E1E068B8B10120C8F80000FFF717
:102B300007FB064605E000BFFFF702FB801B0228EB
:102B4000C0D828688007F7D52868216920F0F800E8
:102B500040EAC10028600DE0C8F800A0FFF7F0FAD5
:102B6000064604E0FFF7ECFA801B02281FD828680D
:102B70008007F7D42078000722D5864F87486169FF
:102B8000703771B101210160FFF7DAFA064604E0FF
:102B9000FFF7D6FA801B022809D838688007F7D5D6
:102BA0000EE0C0F800A0FFF7CBFA064605E082E091
:102BB000FFF7C6FA801B02287DD838688007F7D453
:102BC0002078400768D5DFF8CCB100270BF13C0B2B
:102BD000DBF80000C0000BD4DBF8001041F080519E
:102BE000CBF80010DBF80000012700F080500090C7
:102BF0006B4E3068C00510D4306840F4807030608F
:102C0000FFF79EFA009005E0FFF79AFA0099401A44
:102C1000022850D83068C005F6D55E4EA0686C36E4
:102C200001280FD00528306810D020F00100306056
:102C3000306820F004003060A068B8B1FFF780FA77
:102C400000900FE0306840F00100F4E740F004002D
:102C50003060F7E7FFF774FA0099411A41F28830C3
:102C6000814266D830688007F4D50EE0FFF768FA35
:102C7000009007E0FFF764FA0099411A41F28830AA
:102C8000814256D830688007F4D42FB1DBF80010A9
:102C900021F08051CBF80010A069C8B33D49091D4F
:102CA0000968C1F3810102294AD00228504607D0A1
:102CB000C8F8600000E03CE0FFF742FA04463BE061
:102CC0004746C8F86000FFF73BFA064605E000BF3C
:102CD000FFF736FA801B02282BD828688001F7D42A
:102CE000D4E907010843A16A2E4A490802EB0141D1
:102CF000626A41EA8211084394F82C1040EA0161AB
:102D0000C9F8001001203866FFF71AFA044606E0F9
:102D10003EE000BFFFF714FA001B022809D828681C
:102D20008001F7D534E000BFFFF70AFA001B022844
:102D300002D90320BDE8F88F28688001F4D427E089
:102D40000128F7D0D9F80000E26900F4800191422F
:102D50001CD1226A00F03F01914217D147F6C071A1
:102D6000626A0140B1EB821F10D1A26A4FF0FF33BB
:102D700000F4403103EB5202B1EB024F06D194F85C
:102D80002C1000F07060B0EB016F01D00120D1E792
:102D90000020CFE70438024000004742800E47423F
:102DA000007000400000FFFF70B5040009D0606AA9
:102DB000002540B125616561A56294F8510040B1DC
:102DC0000CE0012070BD6068B0F5827FF4D0E56151
:102DD000F2E784F85050204600F044F8022084F8CE
:102DE00051002068016821F040010160A08821891C
:102DF00000F4827001F404410843A18901F40061E8
:102E00000843217C01F002010843217D01F001010A
:102E10000843218B01F400710843217F01F0380140
:102E2000084394F8201001F080010843218D01F43B
:102E30000051084321680860A069042101EA10409C
:102E400094F8241001F010010843216848602068BC
:102E5000C16921F40061C1616565012084F85100F8
:102E6000002070BD2DE9F04186B006461421684669
:102E7000FDF78FFB34493068884262D13348002423
:102E8000016841F480510160006800F480500590B1
:102E90002E481438016841F002010160016801F018
:102EA00002010591016841F00101016000680225FD
:102EB00000F0010005901820CDE9000502AA0327C3
:102EC0004FF0050882E8900169462148FFF736F87F
:102ED0008020CDE9000502AA694682E890011D48DC
:102EE000FFF72CF81D4D1C487F062860C5E90174CA
:102EF0004FF48068C5E903486C61AC61EC612C62F9
:102F000028466C62FEF7C4FE08B1FEF73EF8F56491
:102F1000AE63124D104860351830E5E802074020D6
:102F2000A5E811010D4845F814496030AC61EC6129
:102F30002C626C62FEF7ACFE08B1FEF726F8B564B1
:102F4000AE6306B0BDE8F081003001404438024075
:102F5000000402400000024040640240AC0900202E
:102F60002DE9F84F044690F8500000270A9E1D46B0
:102F700092468B464FF0010901280ED0012084F8BB
:102F80005000FFF7DDF8804694F851006168012891
:102F90000CD0B1F5827F07D102E00220BDE8F88FA6
:102FA000A16809B9042801D00227C2E0BBF1000FD3
:102FB00027D0BAF1000F24D01DB394F85100042893
:102FC00002D0052084F8510000206065C4F838A0C4
:102FD000E587A587C4F830B0E586A58620646064DF
:102FE00020680168490603D4016841F0400101608E
:102FF000E068B0F5006F606805D0E8B3012D46D0F9
:103000007FE0012795E008B1012D39D1206B2168BF
:103010000088C860206B801C2063E08E401EE08624
:103020002EE02068816889070FD5E18E69B1B9F17A
:10303000010F0AD1216B0988C160206B801C2063BD
:10304000E08E401EE0864FF0000920688168C907C5
:103050000CD0E18F51B1C068A16B0880A06B801CBF
:10306000A063E08F401EE0874FF00109FFF768F88A
:10307000A0EB0800B04200E009E001D3701C50D181
:10308000E08E0028CDD1E08F0028CAD13FE0206B30
:10309000216800780873206B401C2063E08E401E7E
:1030A000E0862EE02068816889070FD5E18E69B13E
:1030B000B9F1010F0AD1216B09780173206B401C13
:1030C0002063E08E401EE0864FF000092068816892
:1030D000C9070CD0E18F51B1C068A16B0870A06B1B
:1030E000401CA063E08F401EE0874FF00109FFF70E
:1030F00027F8A0EB0800B04202D3701C01D010E00A
:103100007EB1E08E0028CDD1E08F0028CAD14246A2
:103110003146204602F0DCFE28B101272020606500
:1031200007E0032705E0A06818B92068C168806837
:103130000090012084F85100002084F850003846A7
:103140002CE77047704710B5040003D094F83D0099
:1031500010B107E0012010BD002084F83C0020469B
:1031600000F01EF8022084F83D00211D206803F0C5
:103170005FF8012084F8460084F83E0084F83F00A0
:1031800084F8400084F8410084F8420084F8430049
:1031900084F8440084F8450084F83D00002010BD08
:1031A00008B500680649884208D10648016841F41C
:1031B00000310160006800F40030009008BD00009C
:1031C000004401404438024090F83D10012901D0EC
:1031D00001207047022180F83D100168CA6842F062
:1031E0000102CA6000681149884214D0B0F1804FD2
:1031F00011D00F4988420ED00E4988420BD00E499B
:10320000884208D00D49884205D00D49884202D035
:103210000C49884204D1816801F00701062903D0D6
:10322000016841F001010160002070470000014089
:103230000004004000080040000C00400004014071
:103240000040014000180040704770B50446006817
:1032500001694FF00005C943890715D4C168C94306
:10326000890711D4E91E0161012020772068806957
:103270008007204602D0FFF7E7FF04E000F0C2F825
:10328000204600F054F9257720680169C9434907B1
:1032900017D4C168C943490713D46FF00401016111
:1032A000022020772068806910F4407F204602D0F9
:1032B000FFF7CAFF04E000F0A5F8204600F037F958
:1032C000257720680169C943090716D4C168C94335
:1032D000090712D46FF008010161042020772068EB
:1032E000C0698007204602D0FFF7AEFF04E000F07F
:1032F00089F8204600F01BF9257720680169C94349
:10330000C90617D4C168C943C90613D46FF01001A8
:103310000161082020772068C06910F4407F2046B2
:1033200002D0FFF791FF04E000F06CF8204600F0B7
:10333000FEF8257720680169C943C90708D1C1682B
:10334000C943C90704D1891E0161204600F0F0F885
:1033500020680169C943090609D4C168C94309063F
:1033600005D46FF0800101612046FFF7EAFE206876
:103370000169C943490609D4C168C943490605D44E
:103380006FF040010161204600F0DCF8206801691F
:10339000C94389060BD4C168C943890607D46FF0B5
:1033A000200101612046BDE87040FFF7CBBE70BD33
:1033B00010B586B0044614216846FDF7EAF80E49B8
:1033C0002068884216D10D48016841F00201016071
:1033D0000068012100F0020005904FF48070009019
:1033E0000220CDE9010103900320049069460448BE
:1033F000FEF7A4FD06B010BD004401403038024085
:1034000000040240704770B5044690F83C00002666
:103410000D4601280FD0012084F83C006AB1042A2F
:103420001DD0082A2FD00C2A3FD00126002084F876
:103430003C00304670BD022070BD206802F05CFF89
:103440002068816941F0080181612068816921F06B
:1034500004018161206881692A69114311E02068B3
:1034600002F07AFF2068816941F40061816120687F
:10347000816921F480618161206881692A6941EA5A
:1034800002218161D2E7206802F09CFF2068C169B7
:1034900041F00801C1612068C16921F00401C161E6
:1034A0002068C1692A69114311E0206802F0BEFF5B
:1034B0002068C16941F40061C1612068C16921F4DB
:1034C0008061C1612068C1692A6941EA0221C16144
:1034D000ACE710B5040003D094F83D0010B107E04C
:1034E000012010BD002084F83C00204600F01EF8AA
:1034F000022084F83D00211D206802F099FE012081
:1035000084F8460084F83E0084F83F0084F84000C8
:1035100084F8410084F8420084F8430084F84400B1
:1035200084F8450084F83D00002010BD70477047C6
:1035300000680349884201D1FFF7AAB8704700002C
:10354000001000407047704770470000F8B50168F0
:1035500004460868CA684B6910F00F0F4FF0000569
:1035600059D003F0010602F49077374365D0C107C4
:1035700005D0D10503D5216C41F00101216441073B
:1035800005D5D90703D0216C41F0020121648107E0
:1035900005D5D90703D0216C41F00401216401074E
:1035A00007D502F02001314303D0216C41F008011E
:1035B0002164216C00293AD0800604D5900602D5FA
:1035C000204602F08AFF20684069216CC0F3801019
:1035D000090700D460B3204602F058FF2068406914
:1035E000400621D52068143050E8001F21F040012A
:1035F00040E80012002AF5D1A06BA8B16C49016522
:10360000A06BFEF763FA002811D0A06B016D01B02A
:10361000BDE8F040084783060FD593060DD5204638
:10362000BDE8F84002F059BF2046FFF78DFFF8BD16
:103630002046FFF789FF2564F8BD266B2023012E65
:1036400079D1C60677D5D60675D508684868009042
:103650004869400640D5A16B086840680004000C2A
:10366000EAD0A28D8242E7D9E085C869B0F5807FB3
:103670002DD020680C3050E8001F21F4807140E804
:103680000012002AF5D12068143050E8001F21F004
:10369000010140E80012002AF5D12068143050E8FA
:1036A000001F21F0400140E80012002AF5D184F803
:1036B0003E30256320680C3050E8001F21F01001D7
:1036C00040E80012002AF5D1A06BFEF7B6F9A08DF4
:1036D000E18D401A81B229E0A08DE18D401A81B2BE
:1036E000E08D0028A8D00029A6D020680C3050E832
:1036F000002F22F4907240E80026002EF5D12068B9
:10370000143050E8002F22F0010240E80026002E7D
:10371000F5D184F83E30256320680C3050E8002F46
:1037200022F0100240E80023002BF5D12046FFF7DD
:103730000AFFF8BDFFE705062BD5150629D594F835
:103740003D002128F5D1A068B0F5805F01D1206946
:10375000B0B1206A411C2162216800784860E08C89
:10376000401E0004000CE084E3D12068C16821F011
:103770008001C1602068C16841F04001C160D8E7A4
:10378000206A0088C0F308004860206A801C20621C
:10379000E5E74006CDD55006CBD5CA68204622F0D5
:1037A0004002CA6084F83D3000F0CBF8C1E7000069
:1037B0007D64000870B5040004D094F83D00002535
:1037C00010B106E0012070BD84F83C50204600F0A6
:1037D00023F8242084F83D002068C16821F40051BA
:1037E000C160204602F0DAFE2068016921F49041B0
:1037F00001612068416921F02A0141612068C168A6
:1038000041F40051C1602564202084F83D0084F813
:103810003E00002070BD0000F0B587B005461421C1
:103820006846FCF7B6FE3E4B296800243D48022658
:1038300003270722994231D13A49254614310B68B2
:1038400043F010030B60096801F010010591016855
:1038500041F002010160016801F002010591016877
:1038600041F0010101600068029500F0010005903F
:103870008020CDE90006CDE90372144669462A4846
:10388000FEF75CFB3002CDE900060295CDE903743A
:1038900069462648FEF752FB07B0F0BD244B99421B
:1038A000FAD1204910310B6843F480230B6009687A
:1038B00001F480210591016841F004010160006874
:1038C000029400F0040005904FF44060CDE900063A
:1038D000CDE9037269461748FEF730FB174E1648CC
:1038E00030604FF00060C6E901044014C6E90340AF
:1038F00080107461C6E90640346230467462FEF797
:10390000C7F908B1FDF741FBAE630022052127206E
:10391000B563FEF755FF2720FEF744FFBCE7000024
:103920000010014030380240000402400000024014
:103930000048004000080240286002403C0B002084
:1039400070477047FEE701684A69D24352050FD4B9
:103950006FF480624A61002140F8301F20224273D8
:103960008173026942F00402026101730120704711
:10397000002070472DE9F84F0446006889460B9DEA
:1039800001689846174641F480610160206801682B
:1039900041F48071016000954FF0011B00225946EF
:1039A00020460A9B00F0DEF84FF4007A40B1206810
:1039B0000068C00501D5C4F840A00320BDE8F88F19
:1039C000216809F0FE0008612B46284920460A9A22
:1039D00000F0FCF8F0BB20684169806900902A463D
:1039E00020460A9900F070F940B1206C04283AD1C1
:1039F0002068016841F40071016034E0FEB2B8F162
:103A0000010F09D02168380A08612A4620460A9920
:103A100000F05AF90028E8D1206806612A462046BD
:103A20000A9900F051F90028DFD12068016841F4BB
:103A30008071016000950022594620460A9B00F0E3
:103A400091F80028B3D1216809F0FF0040F001008F
:103A5000086100E007E02B46044920460A9A00F07E
:103A6000B5F80028AAD00120A8E700000200010054
:103A70002DE9F843044600680D46DDE90897016822
:103A80009846164641F4807101604B4600224FF083
:103A900001112046009700F065F848B120680068E1
:103AA000C00502D54FF4007020640320BDE8F88300
:103AB000216805F0FE0008613B464A46154920464C
:103AC00000F084F888B920684169806900903A461E
:103AD0004946204600F0F8F848B1206C042804D18B
:103AE0002068016841F4007101600120DEE7F5B251
:103AF000B8F1010F09D02168300A08613A464946F9
:103B0000204600F0E1F80028E7D120680561002098
:103B1000CCE700000200010070B516460D460446D1
:103B20000DE02046FFF70FFF08B1012070BD681CB3
:103B300005D0FEF705FB801BA84207D835B12068E9
:103B40004069C0434007ECD4002070BD002044F819
:103B5000300F20216173A073216941F020012161A0
:103B60002073E2E72DE9F0471E4690460D460446D5
:103B7000C1F30747DDF8209008E0701C06D0FEF77F
:103B8000DFFAA0EB0900B0420FD876B12068012F10
:103B900018D0806925EA00000004000C14D0002130
:103BA0004145EAD00020BDE8F087002044F8300FFE
:103BB00020216173A073216941F0200121612073EC
:103BC0000120F0E74069E5E70121E9E72DE9F04749
:103BD0009A4691460E46044600254FF02008C1F350
:103BE000074725E020684069C043400514D4206899
:103BF000016841F40071016021686FF480604861E0
:103C0000256384F83D8084F83E50206C40F0040029
:103C1000206484F83C501FE0B9F1FF3F08D0FEF764
:103C20008FFAA0EB0A0149450CD8B9F1000F09D071
:103C30002068012F13D0806926EA00000004000CE0
:103C40000BD0CFE744F8305F84F80D80A57320696E
:103C500040F02000206125730120BDE8F087406915
:103C6000EAE72DE9F041002590460E46044620275C
:103C700017E04069C043C0060CD454F8301B6FF005
:103C80001000486144F810596777A577206A2062D0
:103C9000257717E0FEF754FAA0EB0800B04208D8E9
:103CA0003EB120684169C9434906E2D40020BDE81D
:103CB000F08144F8305F6773A573206940F02000FD
:103CC000206125730120F2E770B516460D460446C3
:103CD0000DE02046FFF737FE08B1012070BD681CDB
:103CE00005D0FEF72DFA801BA84207D835B1206811
:103CF0004069C0430006ECD4002070BD002044F8A9
:103D0000300F20216173A073216941F020012161EE
:103D10002073E2E708B505F067FD074C0090E078F6
:103D2000552804D12079000601D4FDF731F901218D
:103D3000684604F0FDFFF2E71871002030B5054633
:103D40001088154B0C4668B903F10C0090ED000A81
:103D500083ED000A90ED010A83ED010A90ED020A5D
:103D600083ED020A0C490C483C3903F0D5FC93ED75
:103D7000000A84ED000A93ED010A84ED010A93ED37
:103D8000020A84ED020AB7EE000A85ED000A85ED0D
:103D9000010A85ED020A30BD18720020084891ED35
:103DA000000A80ED000AD1ED010AC0ED010A91ED93
:103DB000021A80ED021A0C3880EC030A70470000EA
:103DC000247200200EB54FF4FA7000E0642003F076
:103DD0003BFFFCF7D5FC0028F8D102E0642003F09B
:103DE00033FF03F051FE0028F8D1824A101DCDE9BF
:103DF0000102A2F1100808F10401FCF7D9FC4346C6
:103E0000A3F1400208F1480AA2F10C0101F13400CB
:103E1000CDF800A003F0A6FC9FED772ADFED771A1E
:103E20009FED771ADFED770A9FED770A08F16400BE
:103E300004F0C1F8A8F14002A2F10C0101F1180050
:103E4000FCF73CFCA8F14C07A7F10C0597ED000A24
:103E5000A5F10C0685ED000AA5F1180986ED000A0A
:103E600089ED000A97ED010A002085ED010A86ED33
:103E7000010A89ED010A97ED020A85ED020A86ED35
:103E8000020A89ED020A03F029FF05F05DFC5F4C90
:103E90005F4920611020C8610846FEF785FF08B120
:103EA000FDF773F8594908222031A1F1080001F00B
:103EB00097FF012020714FF0FF3B5946012004F08D
:103EC00099FD0128F9D12078000708D5207820F045
:103ED000080020704D4801992130FCF795FD60786D
:103EE00040070BD5607820F004006070414A08F16B
:103EF00004011032A2F12A00FCF742FDA07840072D
:103F00000CD5A07820F00400A0704048029916302B
:103F1000FCF7AAFD98ED040A03F028FD354BCDF817
:103F200000A0103BA3F14002A2F10C0101F134000A
:103F300003F018FCD6ED000A9FED361AC9ED000A11
:103F400095ED000A2B4B86ED000A60EE011A9FEDFD
:103F5000320A97ED002A503B40EE801ADFED2F0A1F
:103F6000A3F1180202F14001A1F11C0042EE201A57
:103F7000C5ED001AD6ED011AC9ED011A95ED012A19
:103F800086ED012A22EE012A01EE802AD7ED011AE0
:103F900001EEA02A85ED012AD6ED021AC9ED021A1A
:103FA00095ED022A86ED022A22EE011A01EE801A10
:103FB00097ED020A00EE201A9FED190A85ED021A0C
:103FC000FCF78CFB0B4B2C3B1A1F111FA1F11000AF
:103FD00003F0E0FAE07810F00100E0703FF46DAF1C
:103FE000E07820F00100E070E07840F00200E0703E
:103FF00063E700000472002000A08C450080894522
:1040000000000000CDCC4C3E0000C84468010020F8
:10401000540900205AF8F63F5D896EBFD5A9183BB8
:104020006F12833A10B5A0F20720DDE9051200EB0C
:10403000C0048BB209485BBA00EB4400090C8380D2
:1040400049BAC18091B249BA8181110C8173018A48
:10405000491C01820121C17310BD00007070002055
:104060000B48DDE90312838883828BB25BBA090CAB
:10407000838049BA818191B249BA0182110C81745D
:10408000C18C491CC184012180F8241070470000B4
:10409000BC7000200B48DDE90312838883828BB259
:1040A0005BBA090C838049BA818191B249BA018215
:1040B000110C8174C18C491CC184012180F8241029
:1040C00070470000947000200F4810B50D49016042
:1040D0000721416000214FF400328160C0E90312E2
:1040E000D20042610176012242768276C276017761
:1040F0004177FDF72EFB002803D0BDE81040FCF708
:1041000044BF10BD00640040B00800200F4810B547
:104110000D4901600721416000214FF400328160A8
:10412000C0E90312D2004261017601224276827612
:10413000C27601774177FDF70CFB002803D0BDE87C
:104140001040FCF722BF10BD00680040D8080020D6
:10415000154808B5016841F480010160016801F467
:1041600080010091016841F40011016000680022A3
:1041700000F40010009005210C20FEF721FB0C201C
:10418000FEF710FB002205213A20FEF719FB3A202A
:10419000FEF708FB002205213B20FEF711FBBDE8DE
:1041A00008403B20FEF7FEBA3038024030B5334DB0
:1041B000B9B031AC95E80F0084E80F00002131A8B8
:1041C00003F04EFD2E4C1035E06095E80F0035AD44
:1041D00085E80F00002135A803F042FD2749206142
:1041E0001C2220316846FCF79AF90021684603F04A
:1041F0004AFD224920621C223C3107A8FCF78FF9B6
:10420000002107A803F03FFD1C4960611C225831C2
:104210000EA8FCF784F900210EA803F034FD17491D
:10422000A0611C22743115A8FCF779F9002115A8AA
:1042300003F029FD1149E0611C2290311CA8FCF714
:104240006EF900211CA803F01EFD0C4920601C2201
:10425000AC3123A8FCF763F9002123A803F013FD78
:10426000064960601C22C8312AA8FCF758F90021D1
:104270002AA803F008FDA06039B030BDF49E000804
:10428000000000202DE9F04387B014216846FCF7B8
:1042900080F94F484FF00009016841F002010160C8
:1042A000016801F002010591016841F0010101601E
:1042B000016801F001010591016841F00801016008
:1042C000016801F008010591016841F004010160F5
:1042D000016801F004010591016841F0800101606D
:1042E000016801F080010591016841F04001016021
:1042F0000068384E00F04000059001224021304611
:10430000FDF719FF344F012210213846FDF713FF46
:10431000DFF8C880012211464046FDF70CFF01245A
:104320004020CDE900040294694630460394FDF72D
:1043300005FE09204FF48815CDE900056946029471
:104340003046FDF7FBFDCDE9004969463846029449
:10435000FDF7F4FD1020CDE900040226CDE9024668
:1043600069463846FDF7EAFD3020CDE9000569468B
:1043700002941B48FDF7E2FDCDE902460094694630
:1043800040460194FDF7DAFD062100220846FEF7BB
:1043900017FA0620FEF706FA002205210920FEF78B
:1043A0000FFA0920FEF7FEF9002205210A20FEF788
:1043B00007FA0A20FEF7F6F9002205211720FEF77A
:1043C000FFF91720FEF7EEF907B0BDE8F083000013
:1043D0003038024000180240000002400004024051
:1043E000000802400D4810B50B4901600C494160BE
:1043F00000214FF480428160C0E903124161816174
:10440000C1610162FDF7A2FE002803D0BDE81040A3
:10441000FCF7BBBD10BD0000005C0040000900209F
:10442000801A0600104810B50E4901604FF48271E1
:104430004160002181600122C160C0E90412520282
:1044400082613822C0E90721416281620A21C1628A
:10445000FEF7AAFC002803D0BDE81040FCF795BD8C
:1044600010BD0000003001405409002010B588B094
:104470001C216846FCF78DF8144813490024C0E954
:10448000001441F28731C0E9024104618461FEF702
:104490005AFE08B1FCF779FD0C48FFF71AF808B18D
:1044A000FCF773FD6020CDE9000402940022694608
:1044B00006480494FEF7A7FF08B1FCF766FD034821
:1044C000FEF776FF08B010BD004401406C0A0020E2
:1044D0000C4810B50A4901604FF4E13141600021F8
:1044E00081600C22C160C0E904128161C161FFF7E3
:1044F00061F9002803D0BDE81040FCF746BD10BDAF
:1045000000100140B40A00200C4810B50A490160AF
:104510000B494160002181600C22C160C0E9041296
:104520008161C161FFF746F9002803D0BDE8104062
:10453000FCF72BBD10BD000000480040F80A002029
:10454000A086010010B5B5EEC03A2DED108BF0EE4F
:10455000419AB0EE60AAF0EE40AAF1EE10FA84B0F3
:10456000044616D1F5EEC03AF1EE10FA11D1B5EECF
:10457000C04AF1EE10FA0CD104B0B0EE691AF0EEB8
:104580004A0AB0EE6A0ABDEC108BBDE8104000F09C
:1045900083B9F5EEC01AF1EE10FA09D1B5EEC02AD2
:1045A000F1EE10FA04D1F5EEC02AF1EE10FA7CD04B
:1045B00021EEA10A02EE020A02EEA20A03F014FAA8
:1045C00021EE80FA62EE00EA22EE80EA23EE030A90
:1045D00003EEA30A04EE040A03F006FAD4ED000A7F
:1045E00023EE009A63EE808A60EEA01A24EE008A21
:1045F000F0EE00FACDED031A94ED010A94ED021AE3
:10460000D4ED031A20EE80DA60EE81CA20EEA12AF2
:1046100061EE01DA60EE002A60EE010A20EE21CAA6
:10462000B6EE000A21EEA1BA30EE6D0A61EE21BAB3
:104630003CEE2C1A70EE4B1ACDED021A21EE890ACF
:1046400070EEC21A70EE820ACDED011A08EEA10AD0
:1046500060EE890A08EE010AB6EE001A71EE621ADF
:1046600020EE2F0A31EECB1ACDED001A20EE000A13
:1046700048EE810A3BEECD1A48EE010A60EEAF0A21
:1046800000EEA00A10EE100A05F0B8FB41EC100B8A
:1046900002F020FA51EC100B05F05EFA3CEE6C0AC9
:1046A00000EE900A20EE091A00E08EE07BEE8D1AF3
:1046B000F6EE002A3CEE8C4A3DEE2B2A08EEA11ABB
:1046C000DDED001A704931EEED3ADDED031A71EEC1
:1046D000E21A08EE031A71EE8B3ADDED021A21EEB2
:1046E0002F1A61EEA02ADDED011A61EEA01A64EE28
:1046F000200A41EE002A41EE021A41EE030A2EEE94
:10470000A31A0EEE421A28EEA03A2FEE022A08EE65
:10471000613A0EEEC02A31EE031A2EEE003A29EE6F
:10472000210AD1ED011A0FEE633A68EE223A08EE43
:10473000E20AF5EEC01A49EE603A32EE000A73EE74
:10474000230AF1EE10FA2CDDD1ED011A91ED022AC7
:1047500061EE812ADFED4D1A02EEA12A81ED022AD7
:1047600091ED012A62EE202A91ED032A02EEA12AA0
:1047700081ED032A91ED012A62EE002A91ED042ACF
:1047800002EEA12A81ED042AD1ED021A7AEEA1AA45
:10479000D1ED031A3AEE21AAD1ED041A79EEA19ACD
:1047A00007E0DFED3B1AC1ED021AC1ED031AC1EDBE
:1047B000041AD1ED001A41EE81AA91ED001A01EE22
:1047C00020AAD1ED000A40EE809A9FED320A94EDC6
:1047D000011A94ED022A6AEE800A2AEE003A69EE86
:1047E000802A94ED030A61EE603AD4ED001A42EE9D
:1047F000433A40EE623A73EEA14A61EEA03AC4ED4C
:10480000004A42EE223A40EE433A33EE814A61EEEC
:10481000833A61EEA21A84ED014A41EE623A41EE1A
:10482000031A40EE203A42EE601A73EE823A71EEBD
:10483000800A24EEA40AC4ED023AC4ED030A04EE91
:10484000040A03EEA30A00EEA00A03F0CDF8D4EDAB
:10485000000A60EE800AC4ED000AD4ED010A60EEA1
:10486000800AC4ED010AD4ED020A60EE800AC4EDAC
:10487000020AD4ED030A20EE800A84ED030A04B094
:10488000BDEC108B10BD0000CC0000206F12833AED
:10489000000000006F12033AF5EEC01AB0EE413A84
:1048A000F0EE603AB0EE404AF1EE10FA00B5024682
:1048B00009D1B5EEC02AF1EE10FA04D1F5EEC02A06
:1048C000F1EE10FA78D021EEA10A02EE020A02EE11
:1048D000A20A03F089F821EE805A62EE004A92EDB6
:1048E000011AD2ED030A22EE800AD2ED002A21EE4F
:1048F000202AD2ED021A22EE811A5C4802EEE12A49
:1049000001EEA01AF6EE001A52EEA21A40EEA01A1C
:1049100060EE020A64EEA12A45EE610A40EE412AE9
:1049200025EE010A90ED011A04EEC20AB5EEC01A96
:10493000F1EE10FA2CDD90ED011AD0ED021A21EE05
:10494000222A9FED4B1A42EE011AC0ED021AD0ED59
:10495000011A21EEA02AD0ED031A42EE011AC0ED91
:10496000031AD0ED011A21EE802AD0ED041A42EE8E
:10497000011AC0ED041A90ED021A34EE014A90EDCE
:10498000031A73EE813A90ED041A33EE013A07E010
:104990009FED381A80ED021A80ED031A80ED041A9B
:1049A00090ED001A01EE224A90ED001A41EE203AF5
:1049B000D0ED000A00EE803A9FED2F0AD2ED021AE8
:1049C00024EE002A63EE802A23EE001A92EC020AFB
:1049D00092ED033A60EEC23A41EEE23A43EE413ADA
:1049E00073EE804A60EE023AC2ED004A41EE813A2F
:1049F00043EE623A33EEA04A60EE223A20EE010A1C
:104A000082ED014A40EEC13A00EEA20A43EE023ABC
:104A100001EEC20A73EEA13A70EE030A24EEA40A74
:104A2000C2ED023AC2ED030A04EE040A03EEA30A41
:104A300000EEA00A02F0D8FFD2ED000A60EE800A74
:104A4000C2ED000AD2ED010A60EE800AC2ED010A51
:104A5000D2ED020A60EE800AC2ED020AD2ED030A2C
:104A600020EE800A82ED030A00BD0000CC00002089
:104A70006F12833A000000006F12033AFEE7FEE770
:104A800008B504F0B1FE009000F005F80221684678
:104A900004F04EF9F8E700F001B8000010B52A4C18
:104AA0002DED028BB4F920009FED288A0C2831D01F
:104AB00016282FD017282DD0202836D0244800249F
:104AC0002549048023480480204600BF00EBC00233
:104AD000401CC0B221F812400228F7D300231A4626
:104AE0001946184603F03EFF00231A461946184699
:104AF00003F010FF00231A461946184603F0E2FEA1
:104B00001648032104701648BDEC028BBDE8104026
:104B1000FCF76EB894ED030ADFED120A60EE200A8E
:104B200094ED010A20EE080A07E001F0DBFA94EDAB
:104B3000010ADFED0D0A20EE080ABDEC028BBDE88C
:104B4000104001F04DBA0000E40000200AD7A3BCD9
:104B500094700020BC70002070700020E0000020E5
:104B60008C6E00200AD7233C000000002DE9F74F8F
:104B7000F84981B00868026822F001020260F64834
:104B80000268136823F00103136003E00A6822F04F
:104B900001020A60EF4909680A68D207F6D103E00A
:104BA000016821F001010160EB4800680168C90754
:104BB000F6D1EA48EA4AEB4BD0F84C90E84CE94D84
:104BC000E74EE84FDFF898E3DFF894C3D9F8000028
:104BD000E449483A603318341835303E78374FF49A
:104BE000006A0CF1300C704535D9884205D09042EE
:104BF00003D0984201D0A04201D1202026E0A84253
:104C000005D0B04203D0B84201D0604501D1504632
:104C10001CE0DFF8508308F13008404511D0DFF880
:104C20004083A8F1180840450BD0DFF8388308F11D
:104C30009008404505D0DFF8288308F14808404532
:104C400002D14FF4001001E04FF00060DFF8108354
:104C5000A8F14C083AE0DFF80C8308F1A8084045B9
:104C600037D9884205D0904203D0984201D0A04263
:104C700001D1202026E0A84205D0B04203D0B8429E
:104C800001D0604501D150461CE0DFF8D88208F120
:104C90003008404511D0DFF8C882A8F11808404517
:104CA0000BD0DFF8C08208F19008404505D0DFF84E
:104CB000B08208F14808404502D14FF4001001E0ED
:104CC0004FF00060DFF89882A8F15008C8F80000A3
:104CD00074E0DFF8908208F14808404537D98842EF
:104CE00005D0904203D0984201D0A04201D12020AB
:104CF00026E0A84205D0B04203D0B84201D06045BA
:104D000001D150461CE0DFF85C8208F130084045D4
:104D100011D0DFF84C82A8F1180840450BD0DFF81D
:104D2000448208F19008404505D0DFF8348208F14C
:104D30004808404502D14FF4001001E04FF00060F8
:104D4000DFF82082A8F11008C8F80C0036E088428D
:104D500005D0904203D0984201D0A04201D120203A
:104D600026E0A84205D0B04203D0B84201D0604549
:104D700001D150461CE0DFF8EC8108F130084045D5
:104D800011D0DFF8DC81A8F1180840450BD0DFF81E
:104D9000D48108F19008404505D0DFF8C48108F1BE
:104DA0004808404502D14FF4001001E04FF0006088
:104DB000DFF8B081A8F11008C8F80800D9F80000A1
:104DC0004FF4806B704535D9884205D0904203D0AE
:104DD000984201D0A04201D1102026E0A84205D07F
:104DE000B04203D0B84201D0604501D158461CE022
:104DF000DFF8708108F13008404511D0DFF860819C
:104E0000A8F1180840450BD0DFF8588108F1900848
:104E1000404505D0DFF8488108F14808404502D1F7
:104E20004FF4801001E04FF08060DFF83481A8F18A
:104E30004C083AE0DFF82C8108F1A808404537D942
:104E4000884205D0904203D0984201D0A04201D1BF
:104E5000102026E0A84205D0B04203D0B84201D0CD
:104E6000604501D158461CE0DFF8F88008F13008B1
:104E7000404511D0DFF8E880A8F1180840450BD074
:104E8000DFF8E08008F19008404505D0DFF8D080D9
:104E900008F14808404502D14FF4801001E04FF07E
:104EA0008060DFF8BC80A8F15008C8F800007AE004
:104EB000DFF8B08008F14808404537D9884205D06E
:104EC000904203D0984201D0A04201D1102026E0A8
:104ED000A84205D0B04203D0B84201D0604501D10C
:104EE00058461CE0DFF87C8008F13008404511D0BE
:104EF000DFF86C80A8F1180840450BD0DFF864801B
:104F000008F19008404505D0DFF8548008F14808C2
:104F1000404502D14FF4801001E04FF08060DFF88F
:104F20004480A8F11008C8F80C003CE0884205D085
:104F3000904203D0984201D0A04201D110202CE031
:104F4000A84205D0B04203D0B84201D060450BD191
:104F5000584622E0AC0900200C0A00205409002029
:104F60005864024010600240DFF8688940450FD065
:104F7000DFF8648940450BD0DFF8588908F16008F4
:104F8000404505D0DFF8508908F16008404502D15E
:104F90004FF4801001E04FF08060DFF83889A8F10D
:104FA0004008C8F80800D9F80000704532D9884296
:104FB00005D0904203D0984201D0A04201D10820F0
:104FC00023E0A84205D0B04203D0B84201D06045EA
:104FD00002D14FF4007018E0DFF8F88840450FD098
:104FE000DFF8F48840450BD0DFF8E88808F1600866
:104FF000404505D0DFF8E08808F16008404502D15F
:105000004FF4002001E04FF00070DFF8CC88A8F1E9
:10501000340837E0DFF8BC8808F17808404534D917
:10502000884205D0904203D0984201D0A04201D1DD
:10503000082023E0A84205D0B04203D0B84201D0F6
:10504000604502D14FF4007018E0DFF888884045D1
:105050000FD0DFF8848840450BD0DFF8788808F15E
:105060006008404505D0DFF8708808F160084045C9
:1050700002D14FF4002001E04FF00070DFF85888B3
:10508000A8F13808C8F800006EE0DFF8488808F199
:105090001808404534D9884205D0904203D0984240
:1050A00001D0A04201D1082023E0A84205D0B0429F
:1050B00003D0B84201D0604502D14FF4007018E02F
:1050C000DFF8108840450FD0DFF80C8840450BD042
:1050D000DFF8008808F16008404505D0DFF8F88760
:1050E00008F16008404502D14FF4002001E04FF084
:1050F0000070DFF8E087A8F14008C8F80C0033E042
:10510000884205D0904203D0984201D0A04201D1FC
:10511000082023E0A84205D0B04203D0B84201D015
:10512000604502D14FF4007018E0DFF8A8874045D1
:105130000FD0DFF8A48740450BD0DFF8988708F13F
:105140006008404505D0DFF8908708F160084045C9
:1051500002D14FF4002001E04FF00070DFF87487B7
:10516000A8F14008C8F80800DFF86C87D9F80000FB
:1051700008F118084FF4807E404531D9884205D0A7
:10518000904203D0984201D0A04201D1042022E0F5
:10519000A84205D0B04203D0B84201D0604501D149
:1051A000704618E0DFF82C8740450FD0DFF82887DD
:1051B00040450BD0DFF81C8708F16008404505D05A
:1051C000DFF8148708F16008404502D14FF48020D1
:1051D00001E04FF08070DFF80087A8F1340836E076
:1051E000DFF8F08608F17808404533D9884205D0C9
:1051F000904203D0984201D0A04201D1042022E085
:10520000A84205D0B04203D0B84201D0604501D1D8
:10521000704618E0DFF8BC8640450FD0DFF8B8864E
:1052200040450BD0DFF8AC8608F16008404505D05A
:10523000DFF8A48608F16008404502D14FF48020D1
:1052400001E04FF08070DFF89086A8F13808C8F8C8
:1052500000006CE0DFF87C8608F11808404533D97F
:10526000884205D0904203D0984201D0A04201D19B
:10527000042022E0A84205D0B04203D0B84201D0B9
:10528000604501D1704618E0DFF8488640450FD0F0
:10529000DFF8448640450BD0DFF8388608F1600817
:1052A000404505D0DFF8308608F16008404502D15E
:1052B0004FF4802001E04FF08070DFF81886A8F1ED
:1052C0004008C8F80C0032E0884205D0904203D074
:1052D000984201D0A04201D1042022E0A84205D08A
:1052E000B04203D0B84201D0604501D1704618E009
:1052F000DFF8E08540450FD0DFF8DC8540450BD076
:10530000DFF8D08508F16008404505D0DFF8C88592
:1053100008F16008404502D14FF4802001E04FF0D1
:105320008070DFF8B085A8F14008C8F80800DFF801
:10533000A885D9F8000008F118084FF480394045D5
:1053400030D9884205D0904203D0984201D0A04283
:1053500001D1012021E0A84205D0B04203D0B842DB
:1053600001D0604501D1402017E0DFF86885404555
:105370000FD0DFF8648540450BD0DFF8588508F181
:105380006008404505D0DFF8508508F160084045C9
:1053900001D1484601E04FF48000DFF83C85A8F1D8
:1053A000340835E0DFF82C8508F17808404532D91B
:1053B000884205D0904203D0984201D0A04201D14A
:1053C000012021E0A84205D0B04203D0B84201D06C
:1053D000604501D1402017E0DFF8F88440450FD048
:1053E000DFF8F48440450BD0DFF8E88408F160086A
:1053F000404505D0DFF8E08408F16008404501D160
:10540000484601E04FF48000DFF8CC84A8F138086A
:10541000C8F800006AE0DFF8BC8408F118084045CD
:1054200032D9884205D0904203D0984201D0A042A0
:1054300001D1012021E0A84205D0B04203D0B842FA
:1054400001D0604501D1402017E0DFF88884404555
:105450000FD0DFF8848440450BD0DFF8788408F162
:105460006008404505D0DFF8708408F160084045C9
:1054700001D1484601E04FF48000DFF85884A8F1DC
:105480004008C8F80C0031E0884205D0904203D0B3
:10549000984201D0A04201D1012021E0A84205D0CC
:1054A000B04203D0B84201D0604501D1402017E09E
:1054B000DFF8208440450FD0DFF81C8440450BD036
:1054C000DFF8108408F16008404505D0DFF8088453
:1054D00008F16008404501D1484601E04FF48000E2
:1054E000DFF8F083A8F14008C8F80800FB48DFF8AF
:1054F000E883806C009008F118080068404531D9B5
:10550000884205D0904203D0984201D0A04201D1F8
:10551000202022E0A84205D0B04203D0B84201D0FA
:10552000604501D1504618E0DFF8A88340450FD010
:10553000DFF8A48340450BD0DFF8988308F16008BA
:10554000404505D0DFF8908308F16008404502D15E
:105550004FF4001001E04FF00060DFF87C83A8F109
:10556000340836E0DFF86C8308F17808404533D919
:10557000884205D0904203D0984201D0A04201D188
:10558000202022E0A84205D0B04203D0B84201D08A
:10559000604501D1504618E0DFF8388340450FD010
:1055A000DFF8348340450BD0DFF8288308F160082A
:1055B000404505D0DFF8208308F16008404502D15E
:1055C0004FF4001001E04FF00060DFF80C83A8F109
:1055D0003808C8F800006CE0DFF8F88208F1180815
:1055E000404533D9884205D0904203D0984201D03B
:1055F000A04201D1202022E0A84205D0B04203D031
:10560000B84201D0604501D1504618E0DFF8C482AD
:1056100040450FD0DFF8C08240450BD0DFF8B482A0
:1056200008F16008404505D0DFF8AC8208F1600859
:10563000404502D14FF4001001E04FF00060DFF868
:105640009482A8F14008C8F80C0032E0884205D0E6
:10565000904203D0984201D0A04201D1202022E004
:10566000A84205D0B04203D0B84201D0604501D174
:10567000504618E0DFF85C8240450FD0DFF85882D2
:1056800040450BD0DFF84C8208F16008404505D05A
:10569000DFF8448208F16008404502D14FF4001061
:1056A00001E04FF00060DFF82C82A8F14008C8F854
:1056B00008000098DFF820A200680AF1180A504597
:1056C00031D9884205D0904203D0984201D0A042FF
:1056D00001D1102022E0A84205D0B04203D0B84248
:1056E00001D0604501D1584618E0DFF8E881404517
:1056F0000FD0DFF8E48140450BD0DFF8D88108F106
:105700006008404505D0DFF8D08108F160084045C9
:1057100002D14FF4801001E04FF08060DFF8B881D3
:10572000A8F1340836E0DFF8AC8108F1780840458C
:1057300033D9884205D0904203D0984201D0A0428C
:1057400001D1102022E0A84205D0B04203D0B842D7
:1057500001D0604501D1584618E0DFF87881404516
:105760000FD0DFF8748140450BD0DFF8688108F175
:105770006008404505D0DFF8608108F160084045C9
:1057800002D14FF4801001E04FF08060DFF84881D3
:10579000A8F13808C8F800006CE0DFF8388108F19B
:1057A0001808404533D9884205D0904203D098422A
:1057B00001D0A04201D1102022E0A84205D0B04281
:1057C00003D0B84201D0604501D1584618E0DFF857
:1057D000048140450FD0DFF8008140450BD0DFF851
:1057E000F48008F16008404505D0DFF8EC8008F14E
:1057F0006008404502D14FF4801001E04FF0806016
:10580000DFF8D080A8F14008C8F80C0032E08842E8
:1058100005D0904203D0984201D0A04201D110207F
:1058200022E0A84205D0B04203D0B84201D0604582
:1058300001D1584618E0DFF89C8040450FD0DFF8D2
:10584000988040450BD0DFF88C8008F16008404517
:1058500005D0DFF8848008F16008404502D14FF49C
:10586000801001E04FF08060DFF86880A8F1400808
:10587000C8F8080000980068504536D9884205D01D
:10588000904203D0984201D0A04201D1082029E0E3
:10589000A84205D0B04203D0B84201D0604502D141
:1058A0004FF400701EE0DFF82C8040450FD0DFF889
:1058B000288040450BD0DFF81C8008F16008404587
:1058C00005D0DFF8148008F16008404508D14FF496
:1058D000002007E04060024040640240540900207C
:1058E0004FF00070DFF8E88439E0DFF8E8844045E5
:1058F00038D9884205D0904203D0984201D0A042C6
:1059000001D1082027E0A84205D0B04203D0B84218
:1059100001D0604502D14FF400701CE0DFF8B48480
:10592000A8F17808404511D0DFF8A48408F13408C4
:1059300040450BD0DFF89C84A8F11808404505D0FD
:10594000DFF88C8408F19408404502D14FF4002020
:1059500001E04FF00070DFF87884A8F10408C8F87F
:10596000000076E0DFF86C84A8F16008404538D983
:10597000884205D0904203D0984201D0A04201D184
:10598000082027E0A84205D0B04203D0B84201D099
:10599000604502D14FF400701CE0DFF83884A8F1B4
:1059A0007808404511D0DFF8288408F134084045D4
:1059B0000BD0DFF82084A8F11808404505D0DFF8A7
:1059C000108408F19408404502D14FF4002001E012
:1059D0004FF00070DFF8FC83A8F1B808C8F80C009D
:1059E00037E0884205D0904203D0984201D0A042CF
:1059F00001D1082027E0A84205D0B04203D0B84228
:105A000001D0604502D14FF400701CE0DFF8C48380
:105A1000A8F17808404511D0DFF8B48308F13408C4
:105A200040450BD0DFF8AC83A8F11808404505D0FD
:105A3000DFF89C8308F19408404502D14FF4002020
:105A400001E04FF00070DFF88C83A8F1B808C8F8C7
:105A5000080000980068504533D9884205D090422C
:105A600003D0984201D0A04201D1042026E0A842F0
:105A700005D0B04203D0B84201D0604501D1704694
:105A80001CE0DFF85083A8F17808404511D0DFF81A
:105A9000408308F1340840450BD0DFF83883A8F183
:105AA0001808404505D0DFF8288308F194084045E0
:105AB00002D14FF4802001E04FF08070DFF81083B6
:105AC00038E0DFF81083404537D9884205D090424E
:105AD00003D0984201D0A04201D1042026E0A84280
